:0200000270008C
:10500000807F0020C58A0700ED8A0700EF8A07002D
:10501000F18A0700F38A0700F58A07000000000004
:10502000000000000000000000000000F78A0700F8
:10503000F98A070000000000FB8A0700FD8A0700CC
:10504000FF8A0700FF8A0700FF8A0700FF8A070020
:10505000FF8A0700FF8A0700FF8A0700FF8A070010
:10506000FF8A0700FF8A0700FF8A0700FF8A070000
:10507000FF8A0700E1780700FF8A0700FF8A070020
:10508000FF8A070095640700FF8A0700FF8A070070
:1050900021600700FF8A0700516E0700FF8A0700A2
:1050A000FF8A0700FF8A0700FF8A0700FF8A0700C0
:1050B000FF8A0700FF8A07000000000000000000D0
:1050C000FF8A0700FF8A0700FF8A0700FF8A0700A0
:1050D000FF8A0700FF8A0700FF8A07000000000020
:1050E00000000000000000000000000000000000C0
:1050F00000000000000000000000000000000000B0
:10510000000000000000000000000000000000009F
:10511000000000000000000000000000000000008F
:1054000010B5054C237833B9044B13B10448AFF3FE
:1054100000800123237010BD8C2C002000000000B0
:1054200064A10700084B10B51BB108480849AFF349
:1054300000800848036803B910BD074B002BFBD060
:10544000BDE81040184700BF0000000064A107003D
:10545000902C0020702C002000000000154B002B29
:1054600008BF134B9D46A3F5803A00218B460F469B
:105470001348144A121A00F065F80F4B002B00D0A5
:1054800098470E4B002B00D09847002000210400C5
:105490000D000D48002802D00C48AFF3008000F04A
:1054A0002BF82000290001F043F800F011F800BFAC
:1054B00000000800807F00200000000000000000C5
:1054C0008C2C0020B43800200000000000000000F8
:1054D00008B5074B044613B10021AFF30080054B1C
:1054E0001868836A03B19847204600F033F800BF7C
:1054F00000000000F49D070070B50E4B0E4CE41A3E
:10550000A41000251E46A54204D056F82530984721
:105510000135F8E704F060FC084C094BE41AA410CC
:1055200000251E46A54204D056F82530984701357F
:10553000F8E770BD682C0020682C00206C2C00203F
:10554000682C002002440346934202D003F8011B5A
:10555000FAE77047FEE700BF2DE9F04F0388112BF3
:105560008DB0044618D002D8102B05D03BE0122B8A
:1055700031D0502B1DD036E0934B82881A8000F139
:10558000100303CB914A924B1060516000221A70B5
:10559000904BDB893BBB24E08B4B4FF6FF721A80AC
:1055A0008B4B00221A7002F0D5FEE0B1894B9B694B
:1055B0000EE0884DC288EB899A4214D1038A022BEF
:1055C00011D1837CD9070CD402F0C4FE58B1AB6969
:1055D0004BB1984707E000F1080303CB7B4A10600A
:1055E000516001F0B9FD2388142B00F0D68218D841
:1055F000102B28D008D8022B40F0A284764B002133
:10560000188802F030FCF5E3112B30D0132B40F05A
:105610009784714B002218888521134602F035FCCF
:10562000E8E3522B00F0C08206D8502B00F0C38272
:10563000512B31D000F084BC552B00F0D783562B72
:1056400020D000F07DBC4FF0A0434FF40022C3F8FF
:105650000C254FF40032C3F808255F4BA2881A804E
:105660005E4A136823F00203136000F069BC02F085
:105670007FFB08B100F0FCFE574B4FF6FF721A801B
:1056800000F05EBCA379002B40F05A84524B1321EA
:10569000188802F000FCADE3A579002D00F05084DD
:1056A00008A800211022FFF74DFF022D40F048848A
:1056B0004B4D2289AB899A4240F04284A37B043B44
:1056C000022B40F23D849DF82630434E298A3088D3
:1056D00043F001038DF82630238AADF82830638A21
:1056E000ADF82A3004F1140302220B930023069331
:1056F0008DF82020ADF8182005AB06AA079302F01C
:10570000BCFB374668B99DF81430DA0709D440F27B
:10571000FD133088ADF8243008A902F0ACFB00F08E
:105720000FBC00263888ADF8246008A902F0A3FB5E
:10573000002840F0058408A831460C22FFF702FF3C
:10574000207D431E052B00F22682DFE813F00600C1
:10575000DB01EA0192002402FC01638A062B01D0DE
:10576000012018E21F4AE07D53881380237E617D6B
:1057700009911B0443EA0023A07D0343607E43EAB2
:105780000063012081420A938DF8200001D0022994
:1057900062D11548017014490C78012C02D0022CFA
:1057A00028D05BE0002B5BD0B3F5807F5AD8002572
:1057B00015710E4820222946FFF7C4FE0C4B0A9AA9
:1057C0001D639A6353E000BF3C3400204036002044
:1057D0003E34002040340020622C00201C38002081
:1057E00030380020A82C0020602C0020B836002083
:1057F00080360020002B33D0C3F30B0129B1A94917
:105800009068496D194481422AD1B3F5805F29D847
:105810001279A54C42B3A34AA068516D5D18854228
:1058200022D85364237BD06C9064013303F00303CC
:1058300023730023E38123691165013323619B4BAB
:10584000116318689A4A0844012101F073F968B19C
:105850002369013B236101E0072408E0052406E0F9
:10586000032404E0042402E0082400E001240120D1
:1058700046E103238DF820308E4B1B78012B03D09B
:10588000022B00F0928023E3864BD96B9A6B9142F6
:105890001E4640F03381844D2B792C460BB10124F8
:1058A0002DE100F0BBFD012840F0128395F888300F
:1058B000002B75D095F88E30002B00F009837E4BBD
:1058C00093E803001D46002800F00083002900F043
:1058D000FD8294F8EF3013B194F8F0303BBB94F8AC
:1058E0009820714B002A00F0F182D3F89C20342AD2
:1058F00040F0EC8213F8A07F0022BA4280F2E682E8
:1059000043F20C0E53F804CFBEF800E0F44500F06B
:1059100075820132F1E794F89030002B00F0D682C6
:10592000614BD3F89420B3689A42C0F0CF8294F8C8
:10593000FC305D4F002B40F0C982604B2B60202370
:10594000DFF874816B6002F023FE002840F0BE8215
:1059500007F5A076304607F1FE0197F8FD2004F028
:1059600027FA97F8FD30C7F88061402BC7F88431DB
:1059700040F0AE8298E82002002D00F0A98215F0D8
:10598000030840F0A58204F095F8294600904A46A5
:105990004B48334604F092F8002800F0998248E220
:1059A0002B7D002B00F0948290E23E4B196D5A6DD6
:1059B000586C8A1A9042984640F0A08000205864A3
:1059C00059659B6CC8F84C3001F0ECF9002840F0A8
:1059D0007D82354FD8F85020BB689A427FF45FAF84
:1059E0003B69314D13B100F0F5FCF9E795F8CD3086
:1059F000032B19D1304E314B33602C4BA9681868FA
:105A00004FF02009C6F8049002F0C2FD05F1CF0165
:105A100000284A46306814BF0A24012404F0B8F96B
:105A2000002818BF052400E00A24D8F8143023B158
:105A3000012B40F04B82234900E02349012C45D142
:105A400097F8B530032B11D8DFE803F002040609FC
:105A5000012202E0A52203E0AA228A6007E0AC222C
:105A60008A60D7F8B820C8F8342000E00A2497F8F4
:105A7000EF201AB10C4A92F8F02062B93BB1023B18
:105A8000012B08D8D7F89430C8F80C3003E0D7F8C9
:105A90009430C8F80830D8F848304B60BB680B60C9
:105AA00018E000BF80360020A82C0020DC37002042
:105AB000855F0700602C0020E0370020443800207C
:105AC000F89D0700A43600209836002000228A6046
:105AD0004A600A6000212022B148FFF733FDFF2110
:105AE000B222B048FFF72EFD0023AF48C8F830308F
:105AF00001F058F9002818BF0A2400E00824042007
:105B000021461BE2638A032B01D0022043E0A27DE1
:105B1000637D43EA0223A54A0220538013800121BA
:105B20000CE204238DF82030A14B1B78012B06D00A
:105B3000022B40F0D5819F4B186D996CCDE19D4BA8
:105B4000D86B196CC9E1638A022B01D0062022E0D0
:105B5000637D09930622012B8DF8202002D0022BB1
:105B600040F0E881924A1370914B1B78012B0AD0C8
:105B7000022B40F0E1818F4B4FF48050D3F84880E6
:105B8000D3F85090AFE18B4B4FF48070D3F8408046
:105B9000D3F83C90A7E10321D0E10021A0880A4678
:105BA0000B4602F070F925E10021A0880A460B4659
:105BB00002F05FF91EE1804BE2889B889A4240F038
:105BC000BF810C2208A80021FFF7BCFC784A774E61
:105BD000127802238DF8203004F1120B238ACDF8BD
:105BE00024B0012A0A9302D0022A1AD0EAE0714FA7
:105BF000FC6BBA6B1919914201D93D6CE4E038197C
:105C00001A4659465C3004F0D3F80A99FC6B09989F
:105C10000C4407F14002FC6301F030FE0546386495
:105C2000D2E0644A3179146D956C9046002900F0F9
:105C3000CB80B3F5807F00F2C7801746526DD8F84D
:105C4000441003EB040AC2EB0A028A4200F2BC8051
:105C5000194608F148025846039301F00FFE039BD2
:105C6000B8640546F089514CC8F850A0C218FF2A04
:105C700004F5C479327B0CD800EB022048441A4664
:105C8000594604F095F8E3890A9A1344E38154468F
:105C90004CE0C0F580739BB200EB022059461A46D7
:105CA0004844039304F084F8039B0A99E289C91AD3
:105CB0000A9109991A440B440993404B217B1868B7
:105CC0002369013392B22361D8F83030E281033284
:105CD000184409EB01219210394B00F0C9FF38B983
:105CE000E289D8F830301344C8F8303054460AE01E
:105CF0002369D8F84C50C8F84850013B2361D8F8C4
:105D00005440C8F85040307B0A9A284F013000F0C8
:105D1000030000233073F38142B109EB002009999D
:105D200004F046F8FB890A9A1344FB81F289DFF8F4
:105D30007CA0002A48D0D8F85430D8F83000D8F8E1
:105D400044101C4FD31A03448B423DD31B4B9AF88B
:105D50000C10D3F800E0DAF8103003320133CAF83F
:105D60001030704409EB01219210154B00F080FFB8
:105D700028B93B6BBAF80E2013443B6308E0DAF80D
:105D80001030FD6C7C6DBD64013BCAF810303C6581
:105D9000337B013303F0030333730023F38113E0F8
:105DA000B8360020DC360020955F0700A82C0020C4
:105DB000602C00208036002030380020DC370020A6
:105DC000855F070000252C4676885F4F002E00F087
:105DD000B7803B88013B9BB23B80002B40F0B080FA
:105DE0002046294602F00CFB3E80A9E0A08817213E
:105DF00002F03DF8002800F0A3803BE494F8B530B1
:105E0000032B63D801A252F823F000BF17590700F3
:105E10002F5907001D5E07001D5E070094F89030A3
:105E2000002B53D0484BD3F89420F3689A424DD9B5
:105E30007DE597F8B530C7F80880032B46D8DFE832
:105E400003F002190A2194F8C4203F4B002A3DD0E8
:105E5000D3F8C82014E094F8BC203B4B002A35D07E
:105E6000D3F8C0209A60394BC3F5FC239A421CD961
:105E7000042444E694F8B620334B3AB3D3F8B82060
:105E80009A6012E094F8BC202F4BFAB193F8B62038
:105E9000E2B1D3F8B810D3F8C0205018986009B90F
:105EA00003242CE6002AFBD0DDE7274D284805F126
:105EB000CF01202203F07CFFA0680028F0D002F080
:105EC00055F90028D4D100F06DFF18B10A2416E668
:105ED000052414E601242C7111E602F091FA2FE05A
:105EE000032005212AE03A884FF6FF739A4227D013
:105EF000184B1B68DB0723D5174E6023337006232E
:105F00007370F11C0123B37001F0A2FF033084B25F
:105F10003119484601F09CFF204484B231194046B3
:105F200001F096FF0D4BA989221892B2188801F052
:105F300002FF05E0072100E00521062002F03EFAFD
:105F40000DB0BDE8F08F00BFA82C00200050070066
:105F5000443800201C38002020380020622C00200B
:105F60005B689A68054B9A4206D142688368044987
:105F70000132013B0A604B60704700BF389E07004A
:105F8000E0370020024A1368013B1360704700BFEE
:105F9000B82C002008B50E4C0E4BE41AE40800257E
:105FA0001E46A54204D006EBC5035B68984758B16E
:105FB000BFF34F8F0849094BCA6802F4E0621343EC
:105FC000CB60BFF34F8F01E00135EAE700BFFDE78B
:105FD0008C2C0020842C002000ED00E00400FA0549
:105FE00038B50C4B0C4C4FF40032C3F8802001251F
:105FF0004FF48033C4F84833C4F80833656002F0C6
:10600000F1F8A560054C0025256002F0EBF825713C
:1060100038BD00BF00E100E0001001403032002038
:106020002DE9F74FAF4C6379A279D4F800E09A429A
:1060300011D00133DBB2022B08BF002363716379F7
:1060400004EB83034FF001089E6806EB0E0323F078
:106050007F43236001E00026B046A34DD4F81090A2
:106060002978D4F800C0277D01954B4601989E4AB7
:106070004078884223D001EB410B5068927801317F
:10608000C9B28A4208BF002110F83B20022A00EB67
:10609000CB0A02D0032AE9D10BE0DAF804001A4651
:1060A0009A46002AE2D0824200F009819246D269E3
:1060B000F7E7002BDAD000221A74DB69F9E72775BD
:1060C000C4F800C02361B8F1000F05D1B3EB090299
:1060D00018BF012240461DE000200146C3B11A68E6
:1060E000964203D2961B23611E6012E0DF68D3F84C
:1060F0001CC0B61A114400221A603FB101EB0E0217
:1061000022F07F42D8615A609F6018466346E5E7F7
:10611000236101222669D4F800E094F814C03346C4
:1061200010B10146C06930E00199019D09786F788E
:10613000DFF8B4A18F426FD001EB41089AF802B0AA
:10614000DAF804700131C9B28B458AF8001008BF33
:106150008AF8000007EBC80917F83870D9F804105E
:10616000012FDDD10F7C002FDAD1D9F808504D6016
:10617000D9F80C508D60D9F81050CD60D9F8145072
:106180008D61BCF1000F00D04F60D1F80480CEEBE0
:10619000080727F07F49554FB9458F6801D84F440C
:1061A00008E0C8EB0E0828F07F4847458CBFC8EBD5
:1061B000070700270F604FF0010800274F608F602E
:1061C00081F81080CF612BB3D1F800801F68B845EB
:1061D00004D8C8EB07071F60CB611BE09A461F4637
:1061E000D7F80090C84509D9C9EB0808D7F81C9022
:1061F000BA46B9F1000F07D04F46F1E7C8EB0909DD
:10620000C7F80090B9465746C1F80080C1F81C9005
:10621000F96185E70B4683E7B342236101D1002A88
:1062200048D0002B44D0324E2568D6F80485D3F8E8
:1062300000A02379C5EB080727F07F470337A3B9F0
:106240004FF48032C6F84423C6F80423294A4FF499
:1062500000314FF00109C2F880111160C6F80090BA
:1062600001F0C0FF1F4B83F8049057452CBFEB197A
:1062700005EB0A0323F07F45C6F84055D6F80435F0
:106280001B4AC8EB030323F07F43C8EB0505033328
:1062900025F07F45AB420DD9D2F80435C2F8403520
:1062A00001F0A0FF134B4FF40032C3F8002101E0CE
:1062B000FFF796FE0023237503B0BDE8F08F8245FB
:1062C00005D1DB691BB90A4A012797609C46026821
:1062D000C069CAF81C0000283FF4C8AE05682A440B
:1062E0000260C3E630320020F4370020FEFF7F005A
:1062F0000010014000E100E010B50A494A788C78AE
:10630000531CDBB29C4208BF00230C789C421FBF89
:106310000370486802EB420200EBC20008BF002095
:1063200010BD00BFF43700202DE9F347064602A850
:106330004FF00008254C00F8018D0D46174601F07E
:10634000DFFF617DA27DD3B2228B934238BF013340
:10635000C9B238BF5FFA83F888450AD094F816802E
:10636000A37DDBB293423ABF0133DBB20023A375B6
:1063700001E04FF6FF789DF8070001F09BFA4FF619
:10638000FF7398451ED0E369DFF840A043F83870EA
:106390004FEAC80903EB09028EB185B10C4B18888E
:1063A000DAF82030314600FB08302A4603F000FDC1
:1063B000DAF81C3099440020A9F8045003E00020CA
:1063C000908000E0042002B0BDE8F0873032002069
:1063D0004A36002070B50F4C637DA27D9A4218D0DA
:1063E000637DE2690C48DBB219B20688206A02EBD1
:1063F000C10506FB030052F83120A9889047637D50
:10640000228BDBB29A4286BF0133DBB20023637575
:10641000E1E770BD303200204A36002070B50D4BE8
:106420000D4C9A6B0D4E0E4D0E4961625C33A362AA
:106430000D4B23630D4BE2623046002229461A6061
:106440005A6001F00EFE04F1240031462A4601F0A4
:1064500034FD70BD8036002030320020B09E070031
:10646000BC2C002045720700615F0700E037002068
:10647000BFF34F8F0549064BCA6802F4E06213432D
:10648000CB60BFF34F8F00BFFDE700BF00ED00E022
:106490000400FA05F8B5234A234C0021C2F8401144
:1064A000C2F84411C2F84811C2F84C11C2F80011E8
:1064B000C2F804112369002B32D0D2F804252568D4
:1064C000551B25F07F450E461A68954214D3AD1A28
:1064D00016441A7CDF6962B100221A74626B2AB119
:1064E00058699969904720B1FFF7C2FF5A699869C6
:1064F00090470FB13B46E7E76179A3790A4A8B429F
:1065000005D10133DBB2022B08BF00239371A379BD
:1065100004EB8304054BA6604FF48012C3F80021FE
:10652000F8BD00BF001001403032002000E100E063
:106530002DE9FF474FF0A04303224FF400314FF401
:106540000020C3F84427C3F84827C3F84C27C3F8F2
:106550000815C3F80805C3F80C15AC49C3F834177F
:10656000AB4DC3F820274FF48071C3F80815C3F86A
:106570002027C3F80815A74BA7494FF4AE72002691
:1065800028461E7003F014FC2C68621C06D0281DDF
:106590005821324601F072F9A0420DD09C480021EA
:1065A0004FF4AE72FEF7CEFF012300206B6000F0C7
:1065B000F9FB08B1FFF75CFF2A69954E43F2080327
:1065C000012A1B680BD072694AB1B46904F6FF74E2
:1065D00024F47F6424F00F041C44243601E01C469C
:1065E0001836B268A52A62D002D8012A05D07CE00C
:1065F000AA2A68D0AC2A6CD077E06969844A01295C
:1066000073D1176BD2F824A0FE18C7EB0A07B7F5B1
:10661000805F30464FF001014FF00002B84628BFBE
:106620004FF4805800F086FA034600285BD13046CC
:106630002146424600F01CFB002854D103238DE87C
:10664000480068464FEA98030294039300F062FA08
:106650000246002847D12046012100F06BFA0028AD
:1066600041D12B6BDFF8A89143442B6300F09AFBD8
:10667000B7EB080746444444C9D143F208035146E6
:1066800018683A4601F0FAF8D9F82830984204BF61
:106690000123C9F81C00614804BFC9F82030C9F8BB
:1066A00018A001F03BFF002000F07CFB0FE020462B
:1066B00001F0DAFE0446B0B9304601F02FFF204663
:1066C00000F070FB0DE02046314601F035FF00245C
:1066D00008E0204601F0C8FE28B92046314601F006
:1066E0002BFF012410B1012400E000244FF0A0434F
:1066F000D3F810359B040ED5AB6D012B06D1444B5E
:106700000020986500F04EFB28B153E71CB901F05A
:10671000EFFE00286ED1FFF763FC414A4149424B2E
:10672000536305200023887002F138000B704B7012
:1067300048603E4913614FF48010E0245371937117
:10674000C1F8800181F81443086000F18040A0F591
:106750006F20374EC0F8083581F811431146D0F844
:10676000040541F8B00BD16102F5AC7111623149F9
:106770009375082008801421537511832E4AB61A88
:10678000F6081C461746B44207D057F834309847ED
:1067900000287FF40FAF0134F5E7284A1C4C13782A
:1067A00043F001031370264B264A1A60264B04223D
:1067B0001A60264B00221A60AB6BC3B1FFF72EFEA6
:1067C000A8B1236A23B9A36913B1214A136007E072
:1067D000EA6A0F4B5AB99A694AB15A6A1C4B1A6055
:1067E0001B4B186801F0C2FC1A4B01221A70FFF70C
:1067F000F1FDFCE743F20805286800F013FB286868
:1068000000F010FB204604B0BDE8F0870C00030048
:10681000803600203034002000F00700A43600202D
:1068200030320020F43700201D74070000E100E042
:106830008C2C00204A360020842C0020DD340020DF
:10684000CC3400206173070038340020B82C0020BD
:10685000B02C0020AC2C0020034B01B919705B68F0
:1068600003B11847704700BF30340020094A9368CD
:1068700010B523F0010419B923F00303936002E07B
:1068800044F002049460436813B1BDE81040184717
:1068900010BD00BF30340020F0B50346186880F307
:1068A00008885868FF2464B2EFF30585002D01D1F4
:1068B000A64600472546064621273FBAF0B40024E5
:1068C000002500260027F0B4F92040B2004700BFA1
:1068D000F0BD13DF704761DF704748DF704776DF38
:1068E000704775DF704737B5154CA0894FF6FF73B9
:1068F0009842254621D0A37B227F0133DBB29A4206
:10690000A37307D304F12C01FFF7EBFFA8B1A36A2F
:1069100093B912E00023A37394F8203033B13B21E4
:10692000FFF7DDFF10B1A36A03B198476B6A23B18B
:1069300002A8002200F8042D984703B030BD00BF24
:106940003034002008B5054BD3F89830042B04D11F
:1069500001F08EFCFFF73EFDF5E708BD3034002066
:1069600000200146014AFFF7DFBC00BF096A0700AB
:106970002DE9F341234BD3F89C50D3F8A040B5FA4E
:1069800085F5B4FA84F46D0964091F46002D33D1EE
:1069900097F8A430002B31D101A8FFF79EFF0528FE
:1069A00008D008B1FFF764FD164B0198D3F89C306E
:1069B000984700E00125ECB997F8A430114EEBB9E7
:1069C00002A9D6F8A880B6F8A63021F8063D4046C0
:1069D000FFF781FF0528044606D00028E2D1D6F84B
:1069E000A0304046984700E00124002DD0D0002C74
:1069F000CCD003E015B9CBE7002CDDD002B0BDE868
:106A0000F08100BF3034002008B509B1FFF730FD38
:106A1000034B93F8AC3013B1BDE80840A8E708BDBC
:106A20003034002008B5FFF723FD38B5344D2B680E
:106A300013F004045FD143F004022A60314A324863
:106A40001168324A00BF00BF00BF00BF00BF00BFD7
:106A500000BF00BF81422FD000BF00BF00BF00BFFA
:106A600000BF00BF00BF00BF00BF00BF00BF00BF2E
:106A700000BF00BF00BF00BF00BF00BF00BF00BF1E
:106A800000BF00BF00BF00BF00BF00BF00BF00BF0E
:106A900000BF00BF00BF00BF00BF00BF00BF00BFFE
:106AA00000BF00BF00BF00BF00BF00BF00BF00BFEE
:106AB00000BF00BF00BF00BF013AC3D1144A108815
:106AC0004FF6FF72904204D0132101F0E4F978B13F
:106AD00013E09B070CD501F0E0F970B94FF0A0432B
:106AE0004FF40032C3F808252B6843F002032B60F3
:106AF00001F030FC02E0002400E00446204638BDEE
:106B00001C380020642C00200024F400C0D40100B4
:106B1000622C002018DF70471FB500211022684644
:106B2000FEF710FD022368460093FFF7F3FF05B060
:106B30005DF804FB2DE9FF41484FBB680546580747
:106B4000144616D59A074DD443F00103BB6097F85D
:106B5000AD30DB077CD5424B424A93421E4602D3FE
:106B6000414A934244D30220BB6823F00103BB6037
:106B700070E0C5F30B03002B36D10F462A463B4B82
:106B80000220C3F80405D3F800040028FBD03748DE
:106B9000C0F80825D3F800040028FBD0334B0020B0
:106BA000C3F80405314BD3F80034002BFAD0013F71
:106BB00002F58052E3D105EB0136BCB13946102213
:106BC0006846FEF7BFFC2D0B01236846360B39469D
:106BD0008DF800300194ADF80850ADF80A60A04778
:106BE000384637E00A2035E0062033E0204631E021
:106BF00065B3C5F30B030BBB33689D4220D31FFA6B
:106C000081F8726805EB08339A4219D3B8F1000F86
:106C100018D0684600F00AFEB0B1009B5C601E60B0
:106C2000009B02222D0B1A729D81A3F8108000F0A8
:106C300019FEBB68002043F0010398E7062093E7A4
:106C4000052091E704208FE707208DE703208BE7DD
:106C5000012089E704B0BDE8F08100BF3034002096
:106C6000742C0020742C0020842C002000E00140B3
:106C70002DE9F0430E4646491C468B6813F0040F7D
:106C800085B00546884611D09F0742D443F00103E2
:106C90008B6091F8AD30D8076ED53E4B3E498B42A4
:106CA0001F4638D33D498B4235D238E0002E65D09F
:106CB000002863D040EA06039B0761D1002A63D015
:106CC000374B0121C3F80415D3F800140029FBD079
:106CD000002156F8213045F82130314BD3F800041B
:106CE0000028FAD001319142F3D10021C3F80415F4
:106CF000D3F800140029FBD0002674B16846314651
:106D00008DF8006001940295ADF80C20A047304644
:106D10003BE00A2039E0022037E0204635E06EB340
:106D200065B345EA060399072AD13B68AB4229D8E7
:106D30001FFA82F97A6805EB89039A4222D3B9F1E6
:106D4000000F21D0684600F071FD98B1009B5C6097
:106D50001F60009B01221A72DE601D61A3F814906F
:106D600000F080FDD8F8083043F001030020C8F897
:106D700008300AE0072008E0012006E0032004E0D4
:106D8000062002E0052000E0042005B0BDE8F08305
:106D900030340020742C0020742C0020842C00201F
:106DA00000E0014038B50546194C237823B101F0C5
:106DB0005FFAFFF70FFBF7E7012323706560FFF72A
:106DC000C1FD002213480121FFF7B4FE0728024647
:106DD000F5D018B100232370032038BD0E4D582183
:106DE000284600F04BFD29464FF4AE7241F8040DE1
:106DF0000A4802F0DDFFFFF7A5FD06480749084BEA
:106E00005722FFF735FF0728F5D00028E2D138BD1B
:106E10003034002000F0070084360020E0340020E9
:106E20005968070010B50446FFF776FE60B9074BB6
:106E30004FF0FF32C3F880202046FFF74AFD18B913
:106E40002046BDE8104027E510BD00BF00E100E08E
:106E500008B5074BD3F80C221AB1904738B1FFF7A9
:106E600007FB93F8AC3013B1BDE8084080E508BDDE
:106E70003034002060DF704710DF7047A34B1B7871
:106E8000062B0AD1A24B1B68190706D1A14B1B6820
:106E900003F0F003302B00F0C1809C4B1B78062BD5
:106EA0000FD19B4B1B681A070BD19A4B1B6803F041
:106EB000F002302A00F0B68003F0E003402B00F02F
:106EC000B180924B1B78062B0AD1914B1B681B0794
:106ED00006D1904B1B6803F0F003302B00F0A98023
:106EE0008A4B1B78062B0FD1894B1B6818070BD1D7
:106EF000884B1B6803F0F002302A00F0A08003F0FA
:106F0000E003402B00F09B80804B1B78062B0AD1BE
:106F10007F4B1B68190706D17E4B1B6803F0F003FB
:106F2000302B00F09680794B1B78062B0BD1784BD9
:106F30001B6813F00F0306D1764A126802F0F002C4
:106F4000302A00F08A80714B1B78062B0AD1704BD7
:106F50001B681A0706D16F4B1B6803F0F003502B18
:106F600000F08580694B1B78062B0FD1684B1B689E
:106F70001B070BD1674B1B6803F0F002302A00F0AF
:106F8000BE8003F0E003402B00F0B980624AD2F8E3
:106F9000883043F47003C2F88830BFF34F8FBFF3DB
:106FA0006F8F4FF01023D3F80022002A03DBD3F8B1
:106FB0000432002B2EDA594B0122C3F80425D3F8F2
:106FC0000024002AFBD04FF010221521C2F8001235
:106FD000D3F80024002AFBD04FF010231522C3F869
:106FE00004224E4BD3F80024002AFAD00022C3F822
:106FF0000425D3F80024002AFBD0BFF34F8F464965
:10700000474BCA6802F4E0621343CB60BFF34F8F73
:1070100000BFFDE7434B444A1A607047434B444A64
:107020001A603AE7434B444A1B68C3F34233136088
:1070300047E7424AD36823F08073D36050E74FF0AC
:1070400080430022C3F80C21C3F81021C3F838256F
:107050005AE73B4B03221A6065E73A4A0521116063
:10706000012191679360384B3F221A606BE74FF024
:107070008052364BD2F80414C3F82015D2F8081405
:10708000C3F82415D2F80C14C3F82815D2F810143C
:10709000C3F82C15D2F81414C3F83015D2F818140C
:1070A000C3F83415D2F81C14C3F84015D2F82014D4
:1070B000C3F84415D2F82414C3F84815D2F828149C
:1070C000C3F84C15D2F82C14C3F85015D2F830146C
:1070D000C3F85415D2F83414C3F86015D2F8381434
:1070E000C3F86415D2F83C14C3F86815D2F84014FC
:1070F000C3F86C15D2F84424C3F8702532E7144B5A
:10710000144A1B6803F04F0313603FE7E00F00F0E1
:10711000E40F00F0E80F00F000ED00E000E00140B7
:107120000400FA05642C00200090D00374C00740CE
:107130000DF0ADBA440200103C050040F0ED00E057
:10714000A0050040105600401456004000C000400A
:1071500058020010E40E00402DE9F743324DB5F817
:107160001232AA8D9A420FD8EA8D9A420CD36B6ADA
:1071700023B102A8012200F8042D9847002385F8C6
:10718000183203B0BDE8F08395F81842264B2CB1B5
:107190005B6A002BF2D002A80022ECE75E699A69D4
:1071A000DFF894809B7B002B18BF1646D8F804307C
:1071B000002B37D0042E33D91C4F7B6993B37B7CD3
:1071C00002A8012B00F8044D0CBFB1464FF0000996
:1071D00001F096F80DF10300FFF78EF878B1012366
:1071E0000370134B4760D3F8043583609DF8033078
:1071F000C660C0F81090446188F8013000E00424B3
:107200009DF8040000F056FB2CB90A4B4FF4801295
:10721000C3F80021B2E72046AB6A002BADD1ADE741
:107220000720F9E70820F7E730340020FC3700207A
:107230000010014000E100E0F43700207BDF7047E0
:107240007ADF704743681A44426039B1013993428A
:1072500004D013F8010B01F8010FF8E70120704783
:10726000084B5A6E013A5A6622B907490A7822F049
:1072700002020A701B6E034A0133042B08BF00236D
:107280001366704764340020DD34002028DF704727
:1072900029DF704730B5044685B00D4668460021A9
:1072A0001022FEF74FF9237A012B0CD0022B12D1BA
:1072B0000123A2898DF80030E389ADF80A20D31AA2
:1072C000ADF8083007E000238DF800302369029301
:1072D000A38AADF80C3063680193236868469B6805
:1072E0002946984705B030BD38B51B4A516E146E1B
:1072F000134681B3182505FB04252A7A012A05D0F7
:10730000022A23D1A889FFF7C1FF14E0182000FB4F
:107310000433E98A1869AA8A0833521A5B68B2F5FD
:10732000806F4FEA81010844B4BF92B24FF480628B
:107330001944FFF7ADFF112807D1084A137823F04D
:10734000020343F00403137038BD20B1284609211D
:10735000BDE838409EE738BD64340020DD340020AD
:1073600070B52B492B4B0A781C6E12F0020F0646A3
:107370001D4640D01820022E00FB043002D0032E00
:1073800029D042E0244B00211970037A012B00F12F
:10739000080202D0022B13D037E0C28A818A8B1AEE
:1073A000B3F5806FB4BF9BB24FF4806313441822CF
:1073B0009BB202FB04548B42E38226D1002115E0EC
:1073C000938801339380D38801339BB2D380128991
:1073D0009A421AD10AE0104A13780133DBB2032B28
:1073E00001D8137011E0002313700821FFF752FF3A
:1073F000FFF736FF09E0500707D55B6E02F0FB028E
:107400000A7013B142F002020A70BDE870406BE7E7
:10741000DD340020643400204C36002007B5084BD2
:107420001B88072B8DE8030005D968460821054A0B
:10743000FEF77AFF00E0092003B05DF804FB00BF0F
:107440004A36002049740700082910B501D0FFF71B
:107450000FF803684068BDE8104018472DE9F3476E
:1074600081468A46002600270024D9F808300BB947
:1074700000251EE048460DF1070100F014FD054609
:107480000028F5D09DF8078008F07F002246C0B2A2
:10749000002101F00BFB18F0800F46EA000647EAD6
:1074A000010704F1070402D0462CDED1E0E7CAE967
:1074B0000067284602B0BDE8F0872DE9F3418368F4
:1074C000074688460BB9002626E00DF1070100F0BB
:1074D000EAFC06460028F6D09DF80740220619D59A
:1074E00004F07F040725BB68002BECD038460DF173
:1074F000070100F0D8FC0028E5D09DF8072002F035
:107500007F03AB401C43130605F1070502D5232D6D
:10751000E9D1D8E7C8F80040304602B0BDE8F081B4
:1075200073B50D4601A90446FFF7C7FF064608B923
:1075300000260AE094E80F0085E80F0001998A42CE
:10754000F6D3A960A3685B1AA360304602B070BD91
:1075500030B5044685B0154689B90268104B9A4289
:107560000DD0102D2046694605D91022FFF7F0FFF7
:1075700098B1103DF5E72A46FFF7EAFF0DE0A36852
:10758000AB4201D2002008E0236820462A469847F3
:107590000028F7D0A3685D1BA56005B030BD00BF13
:1075A0004572070013B50446052920D8DFE801F02D
:1075B000070F121F1F1C9DF90430002B18DA2046FC
:1075C00001A90122FFF7C4FF0028F4D110E0002137
:1075D000082206E001A9FFF770FF48B1019A204692
:1075E0000021FFF7B5FF03E000210422F9E70020A6
:1075F00002B010BD2DE9F04357687B7813F0C00C42
:1076000089B006468E46144603D0BCF1400F66D0C2
:10761000B0E003F00F02594903F03003102B51F88A
:1076200022500AD004D8002B40F0A480394608E04C
:10763000202B09D0302B40D09CE0636901221A70C6
:1076400061682269A84796E0BEF1020FD4F8148061
:1076500023D1042A21D804A9FFF762FF002800F0F3
:107660008980069B93B1616898F800204B7993421A
:107670000CD90F79236904A807FB0232A84730B15F
:1076800098F80030013388F80030EAE70120059BC4
:107690007360069B002B6ED06CE098F8003079790F
:1076A000226997F804E0994264D9591C88F80010BF
:1076B000304661680EFB0322C4E7636939781970AC
:1076C000072A0AD1636820691A796146FDF73AFFF3
:1076D00063682169986800F0C4FC3046B0E7176918
:1076E0003B6807F1040913B9FFF75CFF43E0022987
:1076F00011D104A9FFF714FF00283BD03B68616853
:1077000004A84A469847002834D0069B002BF5D1A0
:10771000059B73602FE0012919D007D3052929D1D2
:1077200001A90422FFF714FF042515E000250DF13F
:10773000040801350B2D1DD0304641460122FFF7CC
:1077400007FFB8B118F9013B002BF2DB05E001A9F6
:107750000822FFF7FDFE082568B1094B049301AB31
:1077600005930023069507933B68616804A84A4681
:10777000984700E0002009B0BDE8F083749F07003F
:10778000457207000023C2600160416083608B780E
:107790001A44026191F903301A44426108780030BA
:1077A00018BF0120704710B54268117803460029C0
:1077B0003AD002F10C014160147B2CB90168C26817
:1077C000FFF7E0FF204610BD5178107901F030043A
:1077D000302C0AD1547B04F03004302C05D1907841
:1077E0001969091A196100200CE001F0F004202C3D
:1077F00003D1517911FB00F004E001F0C0018029B0
:1078000008BF0420517811F0300F02BF9968013190
:107810009960917B014418690144196192F90F2024
:1078200011445961012010BD084610BD38B50C4CFB
:10783000616E0429054610D0226E8B18032B88BF79
:10784000043B18220131616602FB034420460021FB
:10785000FDF778FE2C60012038BD002038BD00BF48
:1078600064340020044A137813F0060F03D143F068
:107870000203137038E57047DD34002030B512B1D3
:107880001368DB4301E04FF0FF33014488420DD021
:1078900010F8012B53400822054D13F0010418BFC6
:1078A0002C46013A84EA5303F6D1EFE7D84330BDC2
:1078B0002083B8ED10B5084B9A685AB150B9EFF370
:1078C000108272B605491C680C605C684C60986058
:1078D00002B962B6002010BDE837002000E100E0E8
:1078E00073B502A8002300F8063D00F009FD294BFE
:1078F0001B7803F0FF05002B46D1274B1A68002A9E
:1079000042D0264AD2F80813C9073DD51D601B682E
:10791000019302A8224C019BD2F8086500F8055D8E
:1079200000F0EEFCA16860681F2994BF4B1C2B4639
:107930001F2994BF4A1C00228342A26004D11F2B3E
:1079400094BF01330023636063689DF803009A428B
:107950003ABFC3F12103D218D21AE36821449342FB
:1079600038BF0F4B0E7438BFDA60FFF7A3FFA36870
:1079700062681F2B94BF01330023934201BF074A63
:107980000123C2F8083353609DF80200FFF792FF0D
:1079900002B070BDDC34002000D1004000D00040B7
:1079A0004C3600202DE9F04F0022C9B00C468D5C0A
:1079B000E37843EA0563657843EA0543A57843EA3B
:1079C000052308AD0434AB500432402AEFD12A46D7
:1079D0003023916B576A92E860004FEA714484EA61
:1079E000F14484EA91242F443D194FEAF61484EAC5
:1079F000B64484EAD6012944013B116402F1040231
:107A0000E7D1426D0192826D0292C26D0392026EC5
:107A10000492426E0592826E0692C26E0792924660
:107A200004AA92E80450D0F85080DDF80CB0029E11
:107A3000019F4446274951F8235008A951F82310C3
:107A400005EB01094FEAB21585EAF22585EA726174
:107A500009EB01052EEA02090CEA020189EA01019B
:107A60000D4486EA0701AA44214006EA07054D4075
:107A70004FEAB40181EA743181EAB45101332944F7
:107A8000402B0BEB0A0901EB0A05B346F24606D080
:107A9000E6463E46944627464A462C46CAE7019BA0
:107AA0001C44029B44651F44039B87651E44049B42
:107AB000C6654B440366059B1A44069B42666344B5
:107AC0008366079B454473440565C36649B0BDE8BA
:107AD000F08F00BF989F0700A6DF70477DDF7047DB
:107AE00073DF704772DF704708B5FEF7C1FC2DE900
:107AF000D34F144669460822FFF72AFD90B39DF83C
:107B000001609DF802809DF805A000270023320245
:107B10003B434FEA0846002732433B439DF8006051
:107B20009DF8038000273B439DF804704FEA0A2923
:107B300032439DF806A04FEA086632433B430026D5
:107B400043EA090332434FEA0A499DF807A032434A
:107B500043EA090332434FEA0A69324343EA09031D
:107B6000C4E9002302B0BDE8D08F13B5144601A9C3
:107B70000422FFF7EDFC70B19DF806309DF805205A
:107B80001B0443EA02239DF8042013439DF80720B9
:107B900043EA0263236002B010BD73B50D4601A92C
:107BA00006461446FFF789FC98B1019A511C0FD282
:107BB0006B7803F0C003802B0AD02B79994207D849
:107BC00030462146FFF7C4FC019B0022E25400E04E
:107BD000002002B070BD73B50D4601A906461446DB
:107BE000FFF76BFCA8B1019BFF2B11D8591C0FD2DA
:107BF0006A7802F0C002802A0AD02A79914207D816
:107C00002146304601F8013B1A46FFF7A1FC00E08F
:107C1000002002B070BDF7B50F4669461646FFF763
:107C20001DFC50B3DDE90045002304F001026D089E
:107C30004FEA340413431CBFE443ED43E8B13B79FE
:107C4000082B02D1C6E9004517E0042B02D13460AD
:107C500022460AE0022B03D1A3B233801AB204E019
:107C6000012B09D1E3B233705AB2D317AB4206BF2E
:107C7000A2420120002000E0002003B0F0BD37B593
:107C80000D4669461446FFF7E9FB20B32B79082B14
:107C900004D1DDE90001C4E9000113E0042B03D1A4
:107CA000DDE9000120600CE0022B03D10098208068
:107CB00080B206E0012B0DD1DDE90001207000F05B
:107CC000FF000021DDE90023994206BF9042012018
:107CD000002000E0002003B030BD37B50D466946F6
:107CE0001446FFF7BBFB20B32A79082A04D1DDE94B
:107CF0000023C4E900231CE0009B042A18464FEA35
:107D0000E37103D123601A460B460BE0022A03D12C
:107D10009BB223801AB204E0012A09D1DBB223709E
:107D20005AB2D3178B4206BF82420120002000E0E6
:107D3000002003B030BD30B587B004460D46ADF825
:107D4000062002A810220021FDF7FCFB01238DF87C
:107D50000A300DF1060304932046044BADF8085099
:107D600002A90593FFF7B8FE07B030BD2038002008
:107D700030B5354D296811F002018BB05DD110226C
:107D800001A8FDF7DFFB0B230122ADF8023002232F
:107D90008DF814308DF815208DF8183006225923EF
:107DA0008DF816208DF819300322FE230DF11D00E9
:107DB0000DF102018DF817208DF81A30FFF78EFEB5
:107DC000E0B9BDF802100B299DBF4B1C8DF81B308C
:107DD00009230C2395BFC9188DF81B3089B20823DD
:107DE00088BF14214FF0000294BF8DF81C308DF82D
:107DF0001C3005A8C9B21346FFF774FE0446F8B953
:107E00008DF8040002908DF80C002823ADF81000C6
:107E100001A8ADF80E30FFF763FE80B94FF0A04324
:107E20004FF40032C3F80C254FF40022C3F80825A4
:107E30002B6843F002032B6002E0002400E00446BC
:107E400020460BB030BD00BF1C38002013DF704748
:107E5000C0F3072308704B70C0F30743000EC870CF
:107E60008B700420704767DF704763DF7047ADDFBA
:107E70007047A9DF7047A8DF7047A5DF7047A2DF12
:107E80007047A0DF704786DF70477FDF70477CDF79
:107E900070477ADF704776DF704774DF70476DDFB9
:107EA00070476CDF704710B501220368044698479D
:107EB00010B1A368013BA36010BD2DE9F0478EB05F
:107EC0000027044602A800970197FFF75BFCA36810
:107ED000002B44D0204608A9FFF7EFFA18B9A36891
:107EE000002B3CD033E0089E002E38D0039D4FEA93
:107EF000D60806F00706039B1A78424529D002A847
:107F0000FFF751FC039BAB42F5D1B8455CD3039A14
:107F1000537803F00F03082B4BD11778B84553D390
:107F2000069BD4F808901D68A368002D4AD0994597
:107F300048D12B68D3F800C0BCF1000F6CD02046AC
:107F4000294642463346E047002840F0858000201D
:107F500084E05B7803F00F02082AD0D039E0039B5D
:107F6000049C5D7802A8FFF71EFC0028F7D115F0ED
:107F7000300F03D1039B1B7803B10134BCB16209FC
:107F80000023934205D05DF823100131DFD1013386
:107F9000F7E70EAA02EB830304F01F04C4F12004E8
:107FA0004FF0FF3253F8383CE2409342CFD10120EA
:107FB00054E002A8FFF7F7FB039BAB42A7D14FF0B9
:107FC000FF3701E0994582D120463146FFF7EAFAB2
:107FD0001EE013F0300F0FD1049B3F2B0CD85A0931
:107FE0000EA901EB820203F01F030121994052F810
:107FF000383C0B4342F8383CE56825B12046414601
:10800000324602ABA8472046314602AAFFF7F2FAF1
:1080100000287FF45CAF9AE7D3F808A09AF8003004
:10802000434519D151466A6808A8FFF7ABFB6B6856
:108030000C9305F10C030D939AF8013003F0C00383
:10804000802B04BF2B1D0C9301232B73204631463C
:1080500008AAFFF7CFFA77E7AD6865E70EB0BDE88D
:10806000F0877FB503460A4668461946FFF78AFB44
:1080700030B1684600F025F86846FFF794FBF7E753
:1080800007B05DF804FBF0B585B00F468D68694612
:1080900006461446FFF744FA88B1B86878B17B7891
:1080A00003F03003202B03D128462146FFF7D9FFE8
:1080B000684629462246FFF700FF019B736005B022
:1080C000F0BD30B54268527802F00F01082987B040
:1080D00003461ED103691C68002C45D0002323737E
:1080E000236862689D6868462946FFF74BFB636812
:1080F000049304F10C0305936B7803F0C003802B09
:1081000008BF231D684608BF0493FFF7DAFFA46881
:10811000E2E712F0C00109D102F03000102802D1CC
:108120005A6911700CE090060AD506E080291BD12F
:10813000006900219206016016D55B69197013E091
:108140005A68517801F00F01072904D19068196924
:10815000FFF787FF08E091681869127911B101F003
:1081600027FE01E0FDF7EEF907B030BD38B543F268
:10817000080305461968194B1A68A2F54052521AAD
:10818000824229D31648046AC0F85C11012C16D12A
:10819000836903F6FF7323F47F6323F00F03D21A7E
:1081A00095424FF0000202D9046142610AE00B449B
:1081B00044610261C0F85C3100F1240404E0002352
:1081C0000361436100F11804204600210C22FDF7F1
:1081D000B9F92560002038BD042038BD1410001006
:1081E00080360020204B21491A682F2300BF00BF92
:1081F00000BF00BF00BF00BF00BF00BF8A422FD03A
:1082000000BF00BF00BF00BF00BF00BF00BF00BF76
:1082100000BF00BF00BF00BF00BF00BF00BF00BF66
:1082200000BF00BF00BF00BF00BF00BF00BF00BF56
:1082300000BF00BF00BF00BF00BF00BF00BF00BF46
:1082400000BF00BF00BF00BF00BF00BF00BF00BF36
:1082500000BF00BF00BF00BF00BF00BF00BF00BF26
:10826000013BC3D1704700BF642C00200024F40000
:10827000204B21491A68214B00BF00BF00BF00BF3F
:1082800000BF00BF00BF00BF8A422FD000BF00BFA9
:1082900000BF00BF00BF00BF00BF00BF00BF00BFE6
:1082A00000BF00BF00BF00BF00BF00BF00BF00BFD6
:1082B00000BF00BF00BF00BF00BF00BF00BF00BFC6
:1082C00000BF00BF00BF00BF00BF00BF00BF00BFB6
:1082D00000BF00BF00BF00BF00BF00BF00BF00BFA6
:1082E00000BF00BF00BF00BF00BF00BF013BC3D144
:1082F000704700BF642C00200024F400A086010019
:1083000070B5EFF3108572B60F4AD2F870410123B1
:10831000ACB9C2F870310D4B0D49D3F880603140D3
:10832000C2F868110A49C3F88010D3F88410C2F863
:108330006C114FF0FF32C3F88420047000E003702A
:1083400005B962B6002070BD8036002000E100E073
:10835000FC06FFBC37B5174DD5F8783133B3D5F8E7
:1083600090311BB302A8002400F8014D85F88C4120
:10837000FFF7C6FF0DF10600FDF7BEFF48B102236F
:10838000037005F5BE7343609DF8063085F87531BE
:1083900000E004249DF80700FFF78CFA24B9064B8F
:1083A0004FF48012C3F80021204600E0082003B0FB
:1083B00030BD00BF8036002000E100E00E4B1A887F
:1083C0004FF6FF739A4210B513D00C4BD3F89C4173
:1083D000E4070ED5602483F8A10183F8A21183F885
:1083E000A0411046B3F8BC110322BDE81040FFF7CE
:1083F000A2BC082010BD00BF622C002080360020E7
:10840000174B2DE9F0411E884FF6FF739E428846B8
:1084100022D0144CD4F89C31DB071DD5602384F89E
:10842000A031032384F8A13104F2A311012384F8BD
:10843000A231FFF70DFD033085B204F5D07779192D
:108440004046FFF705FD2A18B4F8BC11304692B239
:10845000BDE8F041FFF76FBC0820BDE8F08100BF28
:10846000622C0020803600202DE9F0431F4D6A6BFE
:108470002B6B02F6FF74E41A24F47F6424F00F04DB
:108480004FEA940909F6FF7929F47F6985B003F56D
:10849000805629F00F09C7180AB1934222D04FEA3B
:1084A0009908012368468DE888000296CDF80C8073
:1084B000FEF730FBB8B9032368468DE8C801FEF724
:1084C00029FB80B9A1456B6B8CBF0446C9EB040442
:1084D0001B1B00204E444F442B63FEF763FC002C13
:1084E000DFD100E0002005B0BDE8F0838036002039
:1084F00010B5094B186A01280CD1DC695CB143F254
:108500000802996910680022FFF7B8F9031B584266
:10851000584110BD002010BD8036002008B50C2247
:108520000021FDF70FF8034B00221A635A631A610A
:108530005A6108BD80360020F0B5134B5C6B0B68A8
:1085400085B005191C1B03230093A4080F4B01934E
:1085500068460F4602950394FEF7DCFA064630B9EA
:108560003846FFF7DBFF3046FEF71CFC09E06846A3
:1085700000211022FCF7E6FF684601950294FEF701
:10858000C9FA05B0F0BD00BF8036002000500700DA
:1085900070B59CB00023109300220023CDE9122374
:1085A000534B1493534B1593534B1693534B1793B1
:1085B000534B1893534B1993534B1A9303F1745322
:1085C000A3F52303A3F692431B9311B90446451860
:1085D0001BE00028FAD11EE0109B14F8011B1CAA16
:1085E0001A440133402B02F8701C10930DD16846D9
:1085F0006946FFF7D7F9DDE9122312F5007243F15E
:108600000003CDE9122300231093AC42E4D13F4C88
:10861000D4F860510DB90E2068E0109B1CAA1A44D2
:10862000372B4FF0800103F101036E4602F8701CF6
:108630006B4406D89A1B382A13D0002203F8012B6A
:10864000F8E79A1B3F2A03D8002203F8012BF8E72A
:1086500030463146FFF7A6F9304600213822FCF7B4
:1086600071FFDDE9122310980821E1FB002322FAB3
:1086700001F1CDE912238DF83F208DF83E10110C49
:10868000120E8DF83C201A0A8DF83D108DF83B3003
:108690008DF83A2030461A0C31461B0E8DF83920E1
:1086A0008DF83830FFF77EF92A4600231B99D94010
:1086B00011701A99D94011711999D94011721899EC
:1086C000D94011731799D94011741699D940117571
:1086D0001599D94011761499D9400833202B117778
:1086E00002F10102E2D1C4F8643100201CB070BD77
:1086F00067E6096A85AE67BB72F36E3C3AF54FA533
:108700007F520E518C68059BABD9831F80360020A9
:108710002DE9F0434FF0A0430322C3F84427C3F8E8
:108720004C274FF40032C3F808254FF40022C3F859
:108730000825A14B95B018680490FEF7EDF90028C4
:108740005BD19E48FFF782FB002856D19C4B9D4A87
:108750001A609D4B50221A809C4B9D4A1A609D4B7B
:108760001C68C4F340341CB14FF40052C3F880209D
:1087700004A89949FEF780FB964A20B17CB14FF4DA
:10878000005313600BE0954B0121197092F81633DA
:108790005B09991E052902D8043B012B01D8FDF77E
:1087A00067FE8F4B9968002900F065811A6842F4D2
:1087B00080021A6000211C220DA8FCF7C3FE0123D1
:1087C0009DF84820ADF834308DF83C308DF83D30C0
:1087D0008DF83E3017230021ADF84430814B1391C2
:1087E00061F30002019314A9019B41F8303D0DA8EB
:1087F0008DF84820FEF73EFB019B0446002840F020
:108800003E81794B794A1A609DF810300D90012213
:1088100062F303030E9062F3071308A88DF810307B
:10882000FFF73DFB38B99DF8213008A801338DF8DA
:108830002130FFF736FB0446002840F020816C48C9
:1088400001F0C1FA6A4982B204A8FFF720FB70B9AF
:108850000C23ADF834301823ADF836300DA84FF4A2
:10886000C873ADF83840ADF83A30FFF712FB044654
:10887000002840F004815F4B4FF6FF7214A91A8064
:108880004FF65963012021F8483D5B4A8DF80A00F4
:10889000FFF7F7FA002840F0B780584B04AC03F11B
:1088A000100518685968224603C20833AB421446C3
:1088B000F7D1534E04A83146FFF7D7FA04460028F3
:1088C00040F0A38021461C224FF014090DA8FCF7AC
:1088D00039FE21464A4608A8FCF734FE9DF834309C
:1088E000ADF80040374643F004038DF8343017F8F4
:1088F00002398DF80E3002234FF00108ADF80C302C
:10890000230A68F3030368F3420468F30713E4B22D
:108910008DF8013044EA080403AD36F8020C8DF8F6
:1089200002400DA908AA3B1D0895CDF824D0ADF84A
:108930002C90FFF7A4FA0446002840F0A0802146BE
:108940001C220DA8FCF7FEFD21464A4608A8FCF7AC
:10895000F9FD9DF83430ADF8004043F018038DF870
:108960003430BB788DF80E30230A204668F30303B9
:1089700068F3071368F342008DF80130C4B217237F
:1089800044F01104ADF82C3036F8020C8DF802409A
:108990000DA908AA07F10C03ADF80C800895CDF8D5
:1089A00024D0FFF76CFA0446002868D1154A1368F2
:1089B00043EA080313602AE098A00700005007006C
:1089C000D834002064380020D63400203C36002003
:1089D0006169070000E100E0256A0700DC3400203F
:1089E000E8370020002C0020D03400205955070023
:1089F000ACA00700622C0020303800209CA00700AB
:108A0000323800201C3800200446002C37D10021C9
:108A10001C220DA8FCF796FD40F6CD430E934FF4B3
:108A200080430F9303238DF84030174B13930DAD04
:108A30000FCD164E0FC695E80700154B86E80700C8
:108A400014481C70FEF7FAFB88B9134B4FF6FF72FF
:108A50001A80124B1C70124B5B6853B1114B1A7C7D
:108A60003AB9114A1C745C745A61FFF781F90446E3
:108A700005E0082403E04FF4800313609AE62046E3
:108A800015B0BDE8F08300BFE97A0700403400204C
:108A9000483600205C3400203C3400203E34002066
:108AA000F4370020FC370020E76807009140031CE2
:108AB00090409C46203A9340194352426346D3402B
:108AC000194370470649074A074B9B1A03DD043BCD
:108AD000C858D050FBDCFEF7D1F9FCF7BFFC000012
:108AE00070A10700002C00208C2C0020FEE7FEE780
:108AF000FEE7FEE7FEE7FEE7FEE7FEE7FEE7FEE74E
:108B00001AB1013A8B5C8354FAE7704710B5013A09
:108B1000D2B253B2002B09DB1BB250F8234051F8FC
:108B200023309C4204D8F2D2FF2002E0002000E073
:108B3000012040B210BD0000000000000000000055
:108B4000C3F10803DB0070B501330446002003A520
:108B50005B1920C940CAAD1920C4184720C940CAB2
:108B6000754120C420C940CA754120C420C940CAEB
:108B7000754120C420C940CA754120C420C940CADB
:108B8000754120C420C940CA754120C420C940CACB
:108B9000754120C4404170BD00000000000000008D
:108BA000C3F10803DB0070B50133002403A500BF47
:108BB0005B1920C940CAAD1B20C0184720C940CA54
:108BC000B54120C020C940CAB54120C020C940CA13
:108BD000B54120C020C940CAB54120C020C940CA03
:108BE000B54120C020C940CAB54120C020C940CAF3
:108BF000B54120C06441B4FA84F0400970BD00BFA3
:108C00002DE9F04F08B4F8CA04B451F8042BA3FBC3
:108C1000028940F8048B4FF0000AE4FB629A4FF09F
:108C2000000BE5FB62AB4FF0000CE6FB62BC4FF0C3
:108C3000000EE7FB62CE51F8042B4FF00008E3FB77
:108C4000628940F8048BE4FB629AE5FB62ABE6FBC9
:108C500062BCE7FB62CE51F8042B4FF00008E3FB47
:108C6000628940F8048BE4FB629AE5FB62ABE6FBA9
:108C700062BCE7FB62CE51F8042B4FF00008E3FB27
:108C8000628940F8048BE4FB629AE5FB62ABE6FB89
:108C900062BCE7FB62CE51F8042B4FF00008E3FB07
:108CA000628940F8048BE4FB629AE5FB62ABE6FB69
:108CB00062BCE7FB62CE40F8049B40F804AB40F88E
:108CC00004BB40F804CB40F804EB0CBC052B00F0CF
:108CD0001E810C68A0F11400A1F11401A2F114028C
:108CE00052F804EB4FF0000550F8046BE4FB6E56AD
:108CF00052F804EB50F8047BE4FB6E6752F804EB87
:108D000050F8048BE4FB6E7852F804EB50F8049BA7
:108D1000E4FB6E8952F804EB50F804ABE4FB6E9A66
:108D2000A0F1140052F8044B51F804EB4FF0000C82
:108D3000E4FB6EC540F804CB51F804EBE4FB6E563F
:108D400040F8045B51F804EBE4FB6E6740F8046BF9
:108D500051F804EBE4FB6E7840F8047B51F804EB27
:108D6000E4FB6E8940F8048B51F804EBE4FB6E9A47
:108D7000A0E80006062B00F0CA800C68A0F11800DD
:108D8000A1F11801A2F1180252F804EB4FF000050E
:108D900050F8046BE4FB6E5652F804EB50F8047B79
:108DA000E4FB6E6752F804EB50F8048BE4FB6E783A
:108DB00052F804EB50F8049BE4FB6E8952F804EB84
:108DC00050F804ABE4FB6E9A52F804EB50F804BB85
:108DD000E4FB6EABA0F1180052F8044B51F804EB21
:108DE0004FF0000CE4FB6EC540F804CB51F804EBE7
:108DF000E4FB6E5640F8045B51F804EBE4FB6E674D
:108E000040F8046B51F804EBE4FB6E7840F8047B07
:108E100051F804EBE4FB6E8940F8048B51F804EB45
:108E2000E4FB6E9A40F8049B51F804EBE4FB6EAB54
:108E3000A0E8000C072B6AD008B40C68A0F11C0055
:108E4000A1F11C01A2F11C0252F804EB4FF0000545
:108E500050F8046BE4FB6E5652F804EB50F8047BB8
:108E6000E4FB6E6752F804EB50F8048BE4FB6E7879
:108E700052F804EB50F8049BE4FB6E8952F804EBC3
:108E800050F804ABE4FB6E9A52F804EB50F804BBC4
:108E9000E4FB6EAB52F804EB50F804CBE4FB6EBC81
:108EA000A0F11C0052F8044B51F804EB4FF0000302
:108EB000E4FB6E3540F8043B51F804EBE4FB6E56DE
:108EC00040F8045B51F804EBE4FB6E6740F8046B78
:108ED00051F804EBE4FB6E7840F8047B51F804EBA6
:108EE000E4FB6E8940F8048B51F804EBE4FB6E9AC6
:108EF00040F8049B51F804EBE4FB6EAB40F804AB84
:108F000051F804EBE4FB6EBCA0E8001808BCBDE817
:108F1000F08F2DE9F04FB1E8005E06B4AAFB09120C
:108F20004FF00003EBFB69234FF00004ECFB6934C6
:108F30004FF00005EEFB69454FF00006EBFB6A635E
:108F4000ECFB6A344918524176415B41A9FB097830
:108F50004FF0000949F1000918EB0108A0E8800171
:108F6000AAFB0A78574158EB0608A0E88001EEFBFF
:108F70006A454FF0000A4AF1000A4FF00001ECFB8D
:108F80006B14EEFB6B454FF00002EEFB6C255FEAC5
:108F900059094941644152416D4149F10009EBFBD6
:108FA0006B3A1AEB010AA0E80804ACFB0C6A6641B4
:108FB0005AEB020AA0E84004AEFB0E6A6E415AEB7F
:108FC000090AA0E8400406BC052A00F0E680A0F1EA
:108FD0001400A1F11401B1E8E043A5FB0E344FF0F9
:108FE0000005E6FB6E454FF00006E7FB6E564FF0BE
:108FF0000007E8FB6E674FF00008E9FB6E784FF062
:109000000009DB1864416D4176417F4158EB080847
:1090100059F1000950F804CB13EB0C0350F804CBC2
:1090200054EB0C0450F804CB55EB0C0550F804CB72
:1090300056EB0C0650F804CB57EB0C0758F1000820
:1090400059F10009A0F11400EEFB0E89A0E8F80325
:10905000062A00F0A280A0F11800A1F11801B1E8E1
:10906000E047A5FB0E344FF00005E6FB6E454FF0E0
:109070000006E7FB6E564FF00007E8FB6E674FF007
:109080000008E9FB6E784FF00009EAFB6E894FF0AB
:10909000000ADB1864416D4176417F4158EB0808B6
:1090A00059EB09095AF1000A50F804CB13EB0C03F1
:1090B00050F804CB54EB0C0450F804CB55EB0C05E2
:1090C00050F804CB56EB0C0650F804CB57EB0C07CA
:1090D00050F804CB58EB0C0859F100095AF1000A7A
:1090E000A0F11800EEFB0E9AA0E8F807072A54D06A
:1090F000A0F11C00A1F11C01B1E8E04FA5FB0E346A
:109100004FF00005E6FB6E454FF00006E7FB6E569C
:109110004FF00007E8FB6E674FF00008E9FB6E7840
:109120004FF00009EAFB6E894FF0000AEBFB6E9AE4
:109130004FF0000BDB1864416D4176417F4158EBE5
:10914000080859EB09095AEB0A0A5BF1000B50F8C1
:1091500004CB13EB0C0350F804CB54EB0C0450F885
:1091600004CB55EB0C0550F804CB56EB0C0650F82D
:1091700004CB57EB0C0750F804CB58EB0C0850F815
:1091800004CB59EB0C095AF1000A5BF1000BA0F17A
:109190001C00EEFB0EABA0E8F80FBDE8F08F10B599
:1091A000002253B28B4205DA1BB2002440F8234060
:1091B0000132F6E710BD2DE9F0478846B3F90210F9
:1091C0001F460825CB1D202493FBF5F51F31954242
:1091D00091FBF4F44FFA84F928BF15460646494638
:1091E000FFF7DDFF2A4630464146FFF789FCB7F915
:1091F0000230ED009D4220D9ED1A06EB84010022D9
:109200008E420AD251F8040D20FA05F313430B6085
:10921000C5F1200300FA03F2F2E72437384631465D
:109220004A46FFF773FC012807D0304631463A46DC
:109230004B46BDE8F047FFF7B3BCBDE8F08710B57B
:1092400000231A465CB28C4204DA50F82440013301
:109250002243F7E7B2FA82F0400910BD4A11012318
:1092600001F01F0150F822008B401840704701396F
:10927000C9B24BB2002B0BDA013111F0FF0315D04C
:1092800059B201F18043013B50F82320002304E050
:1092900050F82330002BEAD0EEE712B15208013328
:1092A000FBE7481E03EB401080B200E0184600B216
:1092B000704730B5002463B2934206DA1BB2013422
:1092C00051F8235040F82350F5E730BDF0B50C4677
:1092D00089B008220646FFF7ECFFE36A0393236B8D
:1092E0000493636B0593A36B0693E36B07930027CB
:1092F00069466A4608236846029701970097FFF778
:109300001FFC314605466A4608233046FFF718FC25
:10931000236B0393636B0493A36B0593E36B069337
:10932000054469466A46082368460797FFF708FC24
:10933000314605446A4608233046FFF701FC236A9C
:109340000093636A0193A36A0293A36B0693E36B92
:109350000793054431466A4608233046059704972B
:109360000397FFF7EDFB636A0093A36A0193E36A37
:10937000A26B0293636B039304920693E26B236ADE
:1093800005920544079331466A4608233046FFF7A5
:10939000D7FBE36A0093236B0193636B0293236A09
:1093A0000693A36A0793054431466A46082330466C
:1093B000059704970397FFF7F3FB236B0093636B09
:1093C0000193A36B0293E36B0393636A0693E36ACF
:1093D00007932D1A31466A460823304605970497AD
:1093E000FFF7DEFB636B0093A36B0193E36B0293C8
:1093F000236A0393636A0493A36A0593236B079319
:109400002D1A31466A46082330460697FFF7C8FBF7
:10941000A36B0093E36B0193636A0393A36A0493C2
:10942000E36A0593636B07932D1A314630466A460B
:10943000082302970697FFF7B3FB2D1A16D530467F
:1094400031460D4A0823FFF77BFB4519F7D410E09E
:10945000094831460822FFF759FB012809D0304658
:109460003146054A0823FFF79BFB2D1A002DEFD04C
:10947000F5E709B0F0BD00BFB8A00700013A30B56C
:10948000D2B2002453B2002B09DB1BB2013A51F8CF
:10949000235050F823306B401C43D2B2F2E7B4FAA9
:1094A00084F0400930BD00EB81010023884206D2E0
:1094B00051F8042D43EA52030B60D307F6E77047D7
:1094C000F8B5036813F0010506460F46144605D0AB
:1094D00001463A462346FFF733FB05463046214610
:1094E000FFF7E1FF45B104F18042013A56F822301E
:1094F00043F0004346F82230F8BD70B59DF91040A6
:109500001D4623460646FFF71BFB30B92846314669
:109510002246FFF7FBFA012807D0304631462A469B
:109520002346BDE87040FFF73BBB70BD70B59DF9A9
:1095300010401D4623460646FFF732FB38B1304641
:1095400031462A462346BDE87040FFF7F9BA70BDA0
:109550002DE9F043A3B09846019112AB414607466E
:10956000104691460093FFF782FEC0EB881086B24A
:10957000454C33B21C40002CBEBF04F1FF3464F0F4
:109580001F040134202593FBF5F5EDB26DB2A4B2B2
:1095900002A8294624B2FFF702FE28B202AB002C33
:1095A00003EB800010DD00221346434510D259F82A
:1095B000235005FA04F10A4340F82320C4F12002A5
:1095C00025FA02F20133F0E749464246FFF771FE01
:1095D0000FFA88F502AB4FEA4509012403EB850534
:1095E000330444D40022114653B24B4522DA0DF124
:1095F000880E0EEB840E0DF1880C18B25EF888EC24
:109600000CEB83035EF820E053F8803CC3EB0E03C1
:109610005B1A734502D08CBF01210021C4F1010EF9
:109620000DF1880C0CEB8E0E01325EF888EC4EF8D2
:109630002030D9E7621A544202A841465441FFF74C
:1096400032FF22AA08F1FF3302EB830302EB880208
:10965000284652F8801C53F8802C013E42EAC17221
:10966000414643F8802CB6B2FFF71DFFB8E722ABA6
:1096700003EB8404384654F8881C4246FFF719FE71
:1096800023B0BDE8F08300BF1F00008070B590B02C
:1096900006469DF950401D4668462346FFF7B0FA3E
:1096A000304669462A462346FFF752FF10B070BD88
:1096B00030B51C4691B0054693F900306846FFF777
:1096C0009FFAD4F8AC3028466946984711B030BDAF
:1096D00030B5144691B0054692F900206846FFF770
:1096E00018FCD4F8AC3028466946984711B030BD14
:1096F0002DE9F04115468AB00446884602A80021AB
:109700002022FBF71FFF2E780323204641462A46DE
:109710002F1D76B20293FFF7DBFF2046214602AAF7
:109720003B460096FFF702FF2046214642462B4665
:10973000FFF7BEFF00962046214605F184023B4616
:10974000FFF7DBFE0AB0BDE8F0812DE9F04793F9A1
:10975000006092B004468946104631461546984648
:10976000FFF76DFD002840F0978002A84946424669
:10977000FFF7AEFF43460AA8214602AAFFF798FF6B
:1097800002A801464246FFF7A3FF43464846494622
:109790002A46FFF78DFF08F104072846294642466E
:1097A000FFF796FF204621462A463B460096FFF7E4
:1097B000A4FE284629462A463B460096FFF79DFE12
:1097C000284621462A463B460096FFF7AFFE204634
:1097D00021462A464346FFF76BFF2846214622468C
:1097E0003B460096FFF789FE20463B460096214601
:1097F0002A46FFF782FE2368DB07204613D533464F
:1098000021463A46FFF79CF9314682462046FFF74B
:109810004AFE06F18043013B54F8230040EACA7037
:1098200044F8230002E03146FFF73DFE284621467A
:109830004246FFF74DFF284629460AAA3B460096B6
:10984000FFF774FE284629460AAA3B460096FFF712
:109850006DFE0AA801462A463B460096FFF766FEC3
:10986000204621460AAA4346FFF722FF02A80246E5
:109870003B4621460096FFF759FE204629463246D0
:10988000FFF717FD284649463246FFF712FD4846C6
:1098900002A93246FFF70DFD12B0BDE8F0872DE9B1
:1098A000F0438BB08046129D15F9046B0096144668
:1098B0001F4689462B4602A811464246FFF736FE50
:1098C00002A80146129AFFF703FF4046414602AA4A
:1098D000129BFFF7EDFE2046214602AA129BFFF7DE
:1098E000E7FE2B46384639464A460096FFF71EFEED
:1098F00002A83946129AFFF7EBFE02A8014642463B
:109900002B460096FFF712FE02A8014622462B4680
:109910000096FFF70BFE2046214642462B46009656
:10992000FFF704FE484649462246129BFFF7C0FE59
:109930002046414602AA2B460096FFF7F7FD38461F
:1099400039462246129BFFF7B3FE384639464A464F
:109950002B460096FFF7EAFD204602A93246FFF7A4
:10996000A8FC0BB0BDE8F083F0B589B01C460746F3
:109970000E461546684611461A46FFF7A9FE3846B8
:1099800039466A462346FFF793FE684669462A46EB
:109990002346FFF78DFE304631466A462346FFF7E1
:1099A00087FE09B0F0BDF0B50646A1B00F460846E7
:1099B000194615461C46FFF742FC20B130462146A9
:1099C000FFF7EDFB73E0684639462246FFF771FC6E
:1099D00008A829462246FFF76CFC10A82146FFF78D
:1099E000DEFB012318A821461093FFF7D8FB684639
:1099F00008A92246FFF78AF8002853D0009BDA070F
:109A000004D468462146FFF74EFD26E0089BDB079D
:109A100004D408A82146FFF746FD3DE000281EDDDE
:109A200008AA234669466846FFF7BAF86846214601
:109A3000FFF739FD10A818A92246FFF767F800289C
:109A400005DA10A801462A462346FFF779F810A840
:109A5000014618AA2346FFF7A3F810A81DE008A89E
:109A60006A4623460146FFF79BF808A82146FFF700
:109A70001AFD18A810A92246FFF748F8002805DAB1
:109A800018A801462A462346FFF75AF818A80146A7
:109A900010AA2346FFF784F818A829462246FFF7A4
:109AA0000FFDA4E7304610A92246FFF702FC21B0C3
:109AB000F0BD000000487047B4A007002DE9F04F4A
:109AC000EFB01E46789C059023780493B4F90230D9
:109AD00092461F33202293FBF2F3DBB206939DF9EB
:109AE000187094F9012007F1FF3926AB002543F8DF
:109AF00029506EAB03EB89034EA88B46314643F8E1
:109B0000805C43F8605CFEF7FBFF94F9012056A8E7
:109B1000B118FEF7F5FF9DF910604EA83146FFF72A
:109B20008EFB8046002840F02F8156A83146FFF773
:109B300086FB0546002840F0258104F124084046B4
:109B40004EA93A46FEF7E2FF012840F01D8140464B
:109B500056A93A46FEF7DAFF0128089040F0148132
:109B60003B461EA856A94246FFF71DFF0DF1380CD3
:109B700060465946524623464CF82950CDF80CC051
:109B8000FFF719FBDDF80CC00097604661461EAA7E
:109B90004346CDF824C00DF5BC79FFF777FD434669
:109BA000009716A84EA91EAAFFF770FD4846324638
:109BB0000599FFF77EFBB300039309EB030B039AB0
:109BC000059B584699183246FFF773FB04F144038E
:109BD0001946324636A80793FFF76BFB04EB860164
:109BE00032463EA8443104F1040AFFF762FB4946BD
:109BF00000961EA836AA5346FFF798FC4A465B46D5
:109C000036A83EA90094FFF74AFE1EA80146334637
:109C10005246FFF7C8FE1EAA484659462346FFF79C
:109C2000A3FEDDF824C0079B0B936046059B0C93B5
:109C30003946CDF814C00A95CDF83490FFF717FBDC
:109C40003946054616A8FFF712FBA842B8BF2846BA
:109C500085B2DDF814C06F1E3FB260463946FFF78B
:109C6000FDFA394610F1000916A818BF4FF0010996
:109C7000FFF7F4FA002814BF0223002343EA09097E
:109C80000DF1280B32465BF8297026A83946FFF7FC
:109C900010FB039B3246F9182EA8FFF70AFB31464A
:109CA0001EA8FFF77CFA023D089B1E93AEB237B2A6
:109CB000002F44DB23461EAAD4F8A45026A82EA9C0
:109CC000A84739460EA8FFF7C9FA3946051C16A859
:109CD00018BF0125FFF7C2FA002814BF0223002392
:109CE0001D430AAB53F8257037B39DF9105036A8C1
:109CF00039462A46FFF7DDFA039B3EA8F9182A46A3
:109D0000FFF7D7FA36A83EA91EAA2346FFF72CFE76
:109D100046A826A936AA53460095FFF707FC36A8A1
:109D20003EA926AA2EAB0094FFF7B9FD1EA8014656
:109D300046AA2346FFF7BCFC013EB6B2B7E79DF941
:109D400010501EA8014652462B46FFF72CFE234614
:109D500026A82EA91EAAFFF707FE9DF91840404627
:109D600026A92246FEF7D2FE012805D026A80146E4
:109D700042462346FEF714FF26A84EA92A46FFF7BF
:109D80007DFB02E0404600E028466FB0BDE8F08F62
:109D900010B50A44441E914208D014F8013F0878D7
:109DA000834201D0181A10BD0131F4E7002010BD24
:109DB00010B5431E0A44914204D011F8014B03F838
:109DC000014FF8E710BD034613F8012B002AFBD121
:109DD000181A013870470000F8B500BFF8BC08BC7D
:109DE0009E467047F8B500BFF8BC08BC9E46704759
:109DF00043000000002C00203C8FD750967E591A5B
:109E000032C0758D10C0910B78EE886BD1705DB04B
:109E100003B4E084DD8DFC8E6F99326CE50399A765
:109E20007EA6C5A2E2309B14940759816A076FC6CB
:109E30001382AFD5570CC0CB011104FC0400000005
:109E400000000000021104FC0400000000000000FB
:109E5000032104FC0404000000000000041101FFC1
:109E60000100000000000000051102FE04000000D7
:109E700000000000061104FC0400000000000000C7
:109E8000071104FC0400000000000000081701FF97
:109E900022000000D49E0700091001FF010000000D
:109EA000709F07000000000000000000000000009C
:109EB000011704FC70000000409F0700021704FC1B
:109EC000B4000000109F0700000000000000000028
:109ED000000000000101000001000000000000007F
:109EE000020500002100000000000000000000004A
:109EF000000000000000000001010000040000005C
:109F00000000000000000000000000000000000051
:109F10000107000070000000409F070002010000E0
:109F200001000000000000000305000041000000E7
:109F30000000000000000000000000000000000021
:109F4000011101FF0100000000000000021702FEE5
:109F500064000000389E0700031704FC04000000A2
:109F6000F89E070000000000000000000000000054
:109F700000000000DB7C07007F7C0700177C0700E7
:109F80006B7B0700EF7A0700D77B07009B7B0700FE
:109F90008780070000000000982F8A4291443771A3
:109FA000CFFBC0B5A5DBB5E95BC25639F111F1595C
:109FB000A4823F92D55E1CAB98AA07D8015B83129E
:109FC000BE853124C37D0C55745DBE72FEB1DE804A
:109FD000A706DC9B74F19BC1C1699BE48647BEEF79
:109FE000C69DC10FCCA10C246F2CE92DAA84744A04
:109FF000DCA9B05CDA88F97652513E986DC631A87A
:10A00000C82703B0C77F59BFF30BE0C64791A7D558
:10A010005163CA0667292914850AB72738211B2EE0
:10A02000FC6D2C4D130D385354730A65BB0A6A76C8
:10A030002EC9C281852C7292A1E8BFA24B661AA8D4
:10A04000708B4BC2A3516CC719E892D1240699D6E4
:10A0500085350EF470A06A1016C1A419086C371E5D
:10A060004C774827B5BCB034B30C1C394AAAD84E3B
:10A070004FCA9C5BF36F2E68EE828F746F63A57876
:10A080001478C8840802C78CFAFFBE90EB6C50A409
:10A09000F7A3F9BEF27871C60100000750EADA3082
:10A0A0008883B89F604F15F30000C98E44667554CD
:10A0B0006172670008200001FFFFFFFFFFFFFFFF45
:10A0C000FFFFFFFF00000000000000000000000094
:10A0D00001000000FFFFFFFF512563FCC2CAB9F376
:10A0E000849E17A7ADFAE6BCFFFFFFFFFFFFFFFF4F
:10A0F00000000000FFFFFFFF96C298D84539A1F489
:10A10000A033EB2D817D0377F240A463E5E6BCF834
:10A1100047422CE1F2D1176BF551BF376840B6CBFF
:10A12000CE5E316B5733CE2B169E0F7C4AEBE78EFB
:10A130009B7F1AFEE242E34F4B60D2273E3CCE3B70
:10A14000F6B053CCB0061D65BC86987655BDEBB312
:10A15000E7933AAAD835C65A4B970700F1960700FD
:08A16000CD9207000000000091
:08A16800F4B2FF7F01000000CA
:10A1700000000000000000000000000000000000DF
:10A1800000000000000000000000000000000000CF
:10A19000F09D07000000000000000000000000002B
:10A1A00000000000000000000000000000000000AF
:10A1B000000000000000000000000000000000009F
:10A1C000000000000000000000000000000000008F
:10A1D0000100FFFF0090D003255407000154070041
:04A1E000000000007B
:10A1E40000100000003008006D6807000000000047
:08A1F400118707002B6A070028
:020000020000FC
:020000041000EA
:041014000050070081
:0410180000E00700ED
:0400000370008AC53A
:00000001FF
