:020000021000EC
:10F000000000012095470200BD470200BF470200F3
:10F01000C1470200C3470200C547020000000000CC
:10F02000000000000000000000000000C7470200D0
:10F03000C947020000000000CB470200CD47020094
:10F0400089270200CF47020025330200AD020200EB
:10F05000FD020200CF470200E92B0200A5030200D7
:10F06000CF470200CF470200CF470200CF47020040
:10F07000CF470200CF470200CF470200CF47020030
:10F08000CF470200110F0200CF470200CF47020016
:10F09000D50F0200CF470200294C0200CF470200E3
:10F0A000CF470200CF470200CF470200CF47020000
:10F0B000CF470200CF470200000000000000000020
:10F0C000CF470200CF470200CF47020051030200A2
:10F0D000CF470200CF470200CF47020000000000E8
:10F0E0000000000000000000000000000000000020
:10F0F0000000000000000000000000000000000010
:10F1000000000000000000000000000000000000FF
:10F1100000000000000000000000000000000000EF
:10F4000010B5054C237833B9044B13B10448AFF35E
:10F4100000800123237010BDD82C002000000000C4
:10F420009C5E0200084B10B51BB108480849AFF3B9
:10F4300000800848036803B910BD074B002BFBD0C0
:10F44000BDE81040184700BF000000009C5E0200AD
:10F45000DC2C0020C02C002000000000154B002BED
:10F4600008BF134B9D46A3F5803A00218B460F46FB
:10F470001348144A121A00F065F80F4B002B00D005
:10F4800098470E4B002B00D0984700200021040025
:10F490000D000D48002802D00C48AFF3008000F0AA
:10F4A0002BF82000290004F035FC00F011F800BF13
:10F4B0000000080000000120000000000000000023
:10F4C000D82C0020FC3600200000000000000000C6
:10F4D00008B5074B044613B10021AFF30080054B7C
:10F4E0001868836A03B19847204600F033F800BFDC
:10F4F000000000002C5B020070B50E4B0E4CE41AAD
:10F50000A41000251E46A54204D056F82530984781
:10F510000135F8E706F0FCFA084C094BE41AA41090
:10F5200000251E46A54204D056F8253098470135DF
:10F53000F8E770BDB82C0020B82C0020BC2C0020AF
:10F54000B82C002002440346934202D003F8011B6A
:10F55000FAE77047FEE700BF70B582B000F068FDC3
:10F56000002800F040820024D023684601AA02212E
:10F570008DF80030ADF804408DF8014000F05EFDDC
:10F580009DF80530044D602B2C7007D0002B0CBF6C
:10F590002020082002B070BDB0360020882301264C
:10F5A000022101AA68462E708DF80030ADF80440A3
:10F5B0008DF8014000F042FD9DF80560AE82892380
:10F5C000022101AA68468DF800308DF80140ADF89F
:10F5D000044000F033FD9DF80520AB8A8DF8014012
:10F5E00043EA02238A26022101AA6846AB828DF8EB
:10F5F0000060ADF8044000F021FD9DF80560EE824A
:10F600008B23022101AA68468DF800308DF8014055
:10F61000ADF8044000F012FD9DF80520EB8A8DF84E
:10F62000014043EA02238C26022101AA6846EB82AC
:10F630008DF80060ADF8044000F000FD9DF8056015
:10F640002E838D23022101AA68468DF800308DF8A3
:10F650000140ADF8044000F0F1FC9DF805202B8B33
:10F660008DF8014043EA02238E26022101AA684652
:10F670002B838DF80060ADF8044000F0DFFC9DF8AE
:10F6800005606E838F23022101AA68468DF8003041
:10F690008DF80140ADF8044000F0D0FC9DF8052045
:10F6A0006B8B8DF8014043EA02239026022101AAC8
:10F6B00068466B838DF80060ADF8044000F0BEFC36
:10F6C0009DF80560AE839123022101AA68468DF85A
:10F6D00000308DF80140ADF8044000F0AFFC9DF81B
:10F6E0000520AB8B8DF8014043EA022392260221CC
:10F6F00001AA6846AB838DF80060ADF8044000F0C5
:10F700009DFC9DF80560EE839323022101AA6846C3
:10F710008DF800308DF80140ADF8044000F08EFC0B
:10F720009DF80520EB8B8DF8014043EA02239426D7
:10F73000022101AA6846EB838DF80060ADF8044011
:10F7400000F07CFC9DF805602E849523022101AA1F
:10F7500068468DF800308DF80140ADF8044000F0A7
:10F760006DFC9DF805202B8C8DF8014043EA0223A7
:10F770009626022101AA68462B848DF80060ADF818
:10F78000044000F05BFC9DF805606E849723022125
:10F7900001AA68468DF800308DF80140ADF80440AC
:10F7A00000F04CFC9DF805206B8C8DF8014043EA7D
:10F7B00002239826022101AA68466B848DF8006016
:10F7C000ADF8044000F03AFC9DF80560AE84992342
:10F7D000022101AA68468DF800308DF80140ADF88D
:10F7E000044000F02BFC9DF80520AB8C8DF8014007
:10F7F00043EA02239A26022101AA6846AB848DF8C7
:10F800000060ADF8044000F019FC9DF80560EE843E
:10F810009B23022101AA68468DF800308DF8014033
:10F82000ADF8044000F00AFC9DF80520EB8C8DF843
:10F83000014043EA02239C26022101AA6846EB8488
:10F840008DF80060ADF8044000F0F8FB9DF805600D
:10F850002E859D23022101AA68468DF800308DF87F
:10F860000140ADF8044000F0E9FB9DF805202B8D28
:10F870008DF8014043EA02239E26022101AA684630
:10F880002B858DF80060ADF8044000F0D7FB9DF8A3
:10F8900005606E859F23022101AA68468DF800301D
:10F8A0008DF80140ADF8044000F0C8FB9DF805203C
:10F8B0006B8D8DF8014043EA0223A126022101AAA3
:10F8C00068466B858DF80060ADF8044000F0B6FB2B
:10F8D0009DF8056085F82C60E123022101AA6846A5
:10F8E0008DF800308DF80140ADF8044000F0A6FB23
:10F8F0009DF80560EE85E223022101AA68468DF895
:10F9000000308DF80140ADF8044000F097FB9DF801
:10F910000520EB8D8DF8014043EA0223E326022106
:10F9200001AA6846EB858DF80060ADF8044000F050
:10F9300085FB9DF8056085F83060E423022101AA6B
:10F9400068468DF800308DF80140ADF8044000F0B5
:10F9500075FB9DF805308DF801401B01E52602215D
:10F9600001AA68466B868DF80060ADF8044000F08F
:10F9700065FB9DF805206B8E8DF8006002F00F028C
:10F980001343022101AA68466B868DF80140ADF849
:10F99000044000F053FB9DF805308DF801401B0931
:10F9A000E626022101AA6846AB868DF80060ADF814
:10F9B000044000F043FB9DF80510AB8E8DF801402C
:10F9C00043EA0113684601AAE7260221AB86ADF897
:10F9D00004408DF8006000F031FB9DF8053085F89B
:10F9E00036302046D6E500F0EDFABCE5244B1B7816
:10F9F0000BB920207047F0B583B000250446F223F0
:10FA000001AA022168468DF80030ADF804508DF847
:10FA1000015000F013FBF42301AA022168469DF86F
:10FA200005708DF800308DF80150ADF8045000F0ED
:10FA300005FB9DF805608DF801707223684601AAE8
:10FA40000221ADF804508DF8003006F0FC0600F0FD
:10FA5000F5FA012C46EA040602D001D3032C0BD19F
:10FA60007423684601AA0221ADF804508DF80160A4
:10FA70008DF8003000F0E2FA202003B0F0BD00BFA6
:10FA8000B036002030B583B00024F523054601AA26
:10FA900002216846ADF804408DF801408DF8003031
:10FAA00000F0CCFA9DF80530ADF8044003F01F03D8
:10FAB0002B437524684601AA02218DF801308DF888
:10FAC000004000F0BBFA10B1202003B030BD024B63
:10FAD0001D7003B030BD00BFA42C002030B583B032
:10FAE0000024054601AAF423684602218DF800305F
:10FAF000ADF804408DF8014000F0A0FA01AA72238D
:10FB0000684602218DF801508DF800309DF80550AF
:10FB1000ADF8044000F092FA7423684601AA02216D
:10FB2000ADF804408DF801508DF8003000F086FAF1
:10FB3000A04214BF2020204603B030BDF0B583B0F2
:10FB40000024064601AAF223684602218DF80030FF
:10FB5000ADF804408DF8014000F070FA01AAF423DA
:10FB6000684602219DF805708DF800308DF801403F
:10FB7000ADF8044000F062FA9DF805508DF8017070
:10FB800001AA72236846022105F01F058DF8003096
:10FB9000ADF8044045EA461500F050FA7423684673
:10FBA00001AA02218DF80150ADF804408DF8003013
:10FBB00000F044FAA04214BF2020204603B0F0BD5C
:10FBC000F0B583B00024064601AAF223684602215C
:10FBD0008DF80030ADF804408DF8014000F02EFAA9
:10FBE00001AAF423684602219DF805708DF80030C3
:10FBF0008DF80140ADF8044000F020FA9DF8055062
:10FC00008DF8017001AA72236846022125F01C05B7
:10FC10008DF80030ADF8044045EA860500F00EFA94
:10FC20007423684601AA02218DF80150ADF8044002
:10FC30008DF8003000F002FAA04214BF20202046C8
:10FC400003B0F0BD30B583B0002501AAF52304460A
:10FC5000022168468DF80030ADF804508DF801504F
:10FC600000F0ECF99DF80530ADF8045003F0E30323
:10FC700004F01C041C436846752301AA02218DF878
:10FC800001408DF8003000F0D9F9A84214BF2020BF
:10FC9000284603B030BD00BFF0B51A4C237887B0BA
:10FCA00013B9202007B0F0BD06A80023F722039364
:10FCB000092100F80C2D6A4604938DF8143000F0E9
:10FCC000BDF99DF806109DF803209DF805C09DF82C
:10FCD00002309DF804E09DF801709DF807609DF8E2
:10FCE00008501209090941EA0C1142EA031343EAD8
:10FCF000073341EA0E3205EB0621A260E360616042
:10FD000007B0F0BDB036002030B40E4CA568A08A14
:10FD1000B4F91810B4F91630C0EB251202FB02F248
:10FD200012134000C0EBE50001FB02F203FB00F000
:10FD3000921302EBE02303EB830080302361001277
:10FD400030BC7047B03600202DE9F04F784C266962
:10FD5000628CB4F91C00E368B4F824C087B0F717CC
:10FD6000B6F5FA3647F1FF370292B4F91E20059333
:10FD7000A6FB06AB06FB07F30BEB430BC117D31730
:10FD80000AFB03FE06FB01F500FB075502FB0BEE29
:10FD9000A6FB0001AAFB0223734429444FEA122860
:10FDA00048EA03684FEA232902030B0312EB080217
:10FDB00043EA1053B4F81A8043EB0903003243F5C9
:10FDC0000043A2FB080108FB03114B100093CB1763
:10FDD0000193DDE9002352EA0305218C00F0A380A2
:10FDE000BDF908804FEAE87906FB09F0A6FB082375
:10FDF00008FB0700C518CDE902230395DDE90223BE
:10FE00000FFA8CF60598F717C0F580150AFB07FE68
:10FE10004FEA434906FB0BEE49EAD239AAFB0667D3
:10FE20000AB2AA4602994FEAE57BCDE902AB4FEA56
:10FE30004148039B16EB080677444FF0000047EB60
:10FE400009074FEAC57A80194FEAC2014FEAC37B1E
:10FE50004BEA550B7941BAEB00006BEB010110EB5B
:10FE6000000841EB010918EB000849EB01094FEAD2
:10FE700089174FEA881647EA986718EB060849EB96
:10FE800007094FEA89054FEA880645EA987516EB97
:10FE9000000845EB01094FEA88064FEA89058019F9
:10FEA00045EA9875DDE90023694104F025FFB4F9BE
:10FEB0002A20B4F928804E13450B45EAC14502FBC0
:10FEC00006F7D31705FB0377A2FB05233B4405FB8D
:10FED00003F34FEAE87906FB0236A5FB022300FB99
:10FEE00009F5334408FB0155560EA0FB0889A944C7
:10FEF00046EAC3164FEAD84A80194FEA63674AEACE
:10FF0000493A79414FEAE94B1AEB000AB4F9262045
:10FF10004BEB010B4FEA1A2040EA0B601201104430
:10FF200007B0BDE8F08F002007B0BDE8F08F00BF3C
:10FF3000B0360020F0B51F48056990F8302090F9E0
:10FF40003640B0F932E04368B0F93470B0F92E10A1
:10FF500090F82C60A5F5963502FB05F204FB05F040
:10FF6000D21202F50044821204FB02F24FEA0E5054
:10FF70009212C0EB833302F5001207FB153301FB2D
:10FF800002F203F5804302F500529213DB1302FBE9
:10FF900003F3D81300FB00F0C01106FB00F0A3EB45
:10FFA000201020EAE070B0F1C85FA8BF4FF0C85041
:10FFB0000013F0BDB0360020014B01221A707047CB
:10FFC000E83600202DE9F041144B0FCB84B04FF000
:10FFD000A0454FF01C0C4FF0190E032708264FF0D8
:10FFE0001D088DE80F008DF800808DF802C08DF897
:10FFF00001E08DF803706946C5F81865084AC5F830
:020000022000DC
:100000000C770848C5F8086500F04AF80649074A21
:1000100001230B70137004B0BDE8F081305B020067
:10002000B9FF0100405B0200E8360020F42C0020FC
:10003000014B1878704700BFF42C002038B332B35E
:10004000F0B5154C237883B0F3B14FF0A0460D46C0
:1000500013460827002222700146C6F80C752A466E
:100060000E48009500F0AEF818B100F023FF00E054
:1000700020BF2378002BFBD04FF0A04308220020A4
:10008000C3F8082503B0F0BD012003B0F0BD024B5A
:1000900001201B78704700BFE8360020405B02005B
:1000A000F8B54479464D64012B191B7E0BB108202D
:1000B000F8BD2A510B7B0F78012B4FF0A0464FF073
:1000C000010303FA07F394BFC6F80C35C6F80835E8
:1000D0000E784FF0A04706F5E076012347F826306A
:1000E0004E78FF2E62D006F5E07EB3404FF0030C51
:1000F000C7F80C3547F82EC08F78FF2F53D007F57F
:10010000E07E4FF0A0434FF0000C43F82EC0CB78B8
:10011000FF2B0FD04FF0010E4FF0A04C0EFA03F35F
:10012000CCF80835CB7803F5E0734FF0030E4CF8AC
:1001300023E0CB7890F805E005EB4E1E8EF81A30E0
:10014000036891F800E0C3F808E5C3F80C65C3F84C
:1001500010758E68C3F824654E7B0F7B003618BF80
:100160000126022F25D0032F1AD0012F01D146F0EE
:100170000206C3F854654E79C3F8C065E2B1402663
:100180000722C3F80463C3F8002590F90400097935
:1001900002F080FB2C440122002022766076F8BD1C
:1001A00046F00606E5E74FF0FF37B0E74FF0FF36C1
:1001B000A2E746F00406DCE70722C3F80025E9E7DA
:1001C000F82C0020F0B54479374F64013D1983B015
:1001D0006E7E9DF820E0183516B1112003B0F0BDF9
:1001E0003E590EB101266E7007EB040C0CF1180697
:1001F0009CF81D50CCF808108CF80C20CCF810306E
:100200008CF814E09CF81AC005F0FE056FF3410568
:10021000BCF1FF0F757106D001254FF0A04605FA1D
:100220000CF5C6F80C55056851B101F06040B0F10D
:10023000005F05D03C4400231020637603B0F0BD7E
:1002400023B103F06040B0F1005FF3D10020C5F8A6
:100250004415C5F84825C5F83435C5F838E5C5F85E
:100260001801D5F8183101930123019AC5F85005FA
:10027000C5F840052B613B591BB14023C5F8043339
:10028000ACE7D5F81831002BFBD03C44A37EFF2B04
:1002900008D001224FF0A04102FA03F3C1F808355B
:1002A00000209BE7002099E7F82C0020104BD3F8A2
:1002B000182102B9704700B500210E4AC3F8181181
:1002C00083B0917ED3F818310193FF29019B05D0AB
:1002D00001234FF0A0408B40C0F80835002353762F
:1002E000137105481368984703B05DF804FB00BF1D
:1002F00000300040F82C0020FC2C00204FF0402360
:10030000D3F8182102B9704700B500210E4AC3F88E
:10031000181183B092F83A10D3F818310193FF29DD
:10032000019B05D001234FF0A0408B40C0F8083559
:10033000002382F8393082F824300448136A984741
:1003400003B05DF804FB00BFF82C00201C2D00203A
:10035000114BD3F8182102B9704700B500210F4A9C
:10036000C3F8181183B092F85A10D3F818310193DA
:10037000FF29019B05D001234FF0A0408B40C0F81E
:100380000835002382F8593082F844300448136C51
:10039000984703B05DF804FB00300240F82C0020C1
:1003A0003C2D00202DE9F041684B1A6888B0002AE6
:1003B0003CD1674F97F82E30002B45D1654B1A681A
:1003C000002A5FD1644B1D68002D6BD17C699CB104
:1003D0004FF000480126B4FA84F18B0003F58C73CA
:1003E00003F1804202F5E04228FA01F0116824EAA4
:1003F000000421B9002CEED108B0BDE8F0811560F1
:10040000A3F58C731268049283F00401C1F3800297
:10041000DB088DF819208DF818308DF814603B68D2
:10042000049A05A89847002CD5D1E5E70022484F4B
:100430001A60196897F82E3000910099002B3AD075
:1004400097F82F30002B4FD1444B1A68002AB5D0B3
:100450000021196097F82D401A687B8B0192A5B294
:10046000AB42019A3A4A4ED85FD0384B3C4A002101
:1004700019601B680293012302991360354B1A68B7
:10048000002A9FD000221A6008A81B68039302214B
:1004900000F80C1D3B6803993A7498472E4B1D6871
:1004A000002D93D000221A601B680593059B3A74B7
:1004B00008B0BDE8F081FA68786839898DF81430A1
:1004C0000690ADF81C10002A2CD02648398B7A6093
:1004D0000122FB607983398102603B6805A8984757
:1004E000002387F82F3065E7FB68786839898DF835
:1004F00014200690ADF81C10A3B1398B7B60FA6014
:1005000079833981E9E711895068164E5B1B9BB2EC
:1005100089B2C91A00EB41015383C6F82C16C6F8FC
:100520003046A2E700233B74D7E7D3684BB10D48B0
:1005300051830121C0F82C3682F82F10C0F83046C4
:1005400093E70121538382F82F108EE70471004056
:10055000582D0020107100401471004000710040BF
:1005600004700040007000400378012B04BF014A72
:1005700013707047882E00202DE9F04FC5B09148C8
:100580004F9F16461C460D46002914BF4FF00A0B1C
:100590004FF0000B02F0BAFE002840F0E280002C81
:1005A00000F0E38004AB02460193519B4F97FE1885
:1005B0002025104600EB0B03019A03933133D31827
:1005C00002931318BBF1000F60D05A4202F00302ED
:1005D0005A4528BF5A46BBF1060F00F2E5805A463D
:1005E0000199012A0D5403F1010100F0DB80022A78
:1005F0005D7003F1020100F0D580032A9D7003F1C4
:10060000030100F0CF80042ADD7003F1040100F043
:10061000C980062A1D7103F1050140F0CB805D7190
:10062000991D9446934530D0C2EB0B09A9F1040EF5
:100630000BF1FF3A4FEA9E0EC2EB0A0A0EF1010ED1
:10064000BAF1020F4FEA8E0814D90244019F4FF00D
:100650002030BEF1010F07EB020AB85006D0BEF100
:10066000020FCAF8040001D0CAF80800C845414486
:10067000C4440AD00CF1010293450D7005D90CF168
:10068000020CE3454D7000D98D705B444E4A0299CF
:10069000D2F800804F9FDDF84091DA1C481C03F12E
:1006A000330C0CE002F8035C02F8025C02F8015C17
:1006B0000332624500F8015C00F1010033D0A6422C
:1006C000F0D9A74295BFE11B4E9919F80110095DB9
:1006D00002F8015C4FEA211E5FFA8EFABEF1090FA3
:1006E00001F00F0ED4BF0AF1300A0AF1370ABEF149
:1006F000090F02F803AC94BF0EF1300E0EF1370E65
:1007000008EB010A02F802EC9AF801E003321EF04D
:10071000970F08BF2E21624500F8011C04F1010467
:1007200000F10100CBD1039A4F97029F274802F1B5
:1007300043080A210D223A7479744246019983F8DC
:10074000305004F0ABFD5FFA88F21E481F4902F0FA
:1007500023FD30B91B4802F0D9FD10B9A6423FF67F
:1007600029AF204645B0BDE8F08F35B304A82B680B
:10077000174A01904FF4807104F09CFD0028F0DBD3
:100780000546304604F0C8FD019BC22828BFC220A0
:10079000024680463146581904F080FD08EB0503F7
:1007A0001A4602E794463DE7002A7FF419AF19463E
:1007B000944639E74FF0050C34E704AB2546019326
:1007C000DFE700BFA82C0020B42C0020882D0020DB
:1007D000685B02002DE9F0415C48C6B00C46174644
:1007E0001D4602F093FD002831D1002C33D006AE17
:1007F0002368574A30464FF4807104F05BFD0028AF
:1008000025DB4C9B0446062B00F29E80DFE803F0BC
:100810007887915B6947050006AE2A1D92E80411AE
:1008200029692B686D6904950092039130193A4645
:10083000CDF80480CDF808C0C4F5807104F03AFD0D
:100840000546002D03DB2C44B4F5807F18D9002029
:1008500046B0BDE8F0814C9B0024062B10D801A2C5
:1008600052F823F0010902001D09020031090200BB
:10087000C5080200E10802009D08020019080200F4
:1008800006A92246334804F009FDE2B22F48314957
:1008900002F082FCB0FA80F04009D9E706AE6A683F
:1008A000E9682B68D5F808C02D690395009202917C
:1008B00030193A46CDF804C0C4F5807104F0FAFC52
:1008C0000546BEE706AE6A68A9682B6800920191EA
:1008D00030193A46C4F5807104F0ECFC0546B0E7E7
:1008E00006AE6A68A9682B68ED68029500920191CE
:1008F00030193A46C4F5807104F0DCFC0546A0E7E7
:10090000384604F009FD0319FF2B054699D806ABBC
:10091000394618192A4604F0C1FC92E706AE2B6846
:1009200030193A46C4F5807104F0C4FC054688E7E6
:1009300006AE6A682B68009230193A46C4F5807199
:1009400004F0B8FC05467CE700257CE7A82C0020D5
:10095000685B0200882D0020F0B51A4F3B7889B003
:1009600006461BB1184B1B78834228D0174D0FCD7C
:100970006C460FC495E80F004FF0000E84E80F009E
:100980000625052107224FF0EB7311480391082437
:1009900002928DF814E000950194069302F076FB24
:1009A000002E0C4A0A4818BF0022694602F080FA5D
:1009B00018B9054A012316703B7009B0F0BD00203C
:1009C00009B0F0BD8A2E0020892E0020485B02006D
:1009D000A82C00206905020000487047D5070200D6
:1009E000004870477905020038B50020FFF7B4FFD2
:1009F000044668B9FFF7F0FF0546FFF7F1FF054B26
:100A0000FF22C3F810541C605C60C3F814049A60A1
:100A1000204638BD8C2E00200120FFF79DBF00BF6F
:100A20002DE9F04383B002AB4FF0000903F8019DBC
:100A3000254C074618460E46A56800F037FFA26809
:100A40006368D4F8008013440133C8EB0303012B1F
:100A500007D80BBB9DF8070000F050FF03B0BDE8BE
:100A6000F08308F101039DF80700236000F046FFC2
:100A70000122002362F3010369F3820308EA0505FA
:100A800067F3C50304EB850469F3891366F39F23B9
:100A9000E36003B0BDE8F08301214B4661F301033D
:100AA00069F38203052161F3C50302EA08020749DD
:100AB00004EB820269F3891308F1010561F39F23B6
:100AC0002560D360C6E700BF8C2E0020705B02005B
:100AD0002DE9F04782B002AB4FF0000903F8019D09
:100AE000DFF8B4800746184615460E46D8F8084089
:100AF00000F0DCFED8F80820D8F80430D8F800A0C0
:100B000013440133CAEB0303022B07D853BB9DF8F0
:100B1000070000F0F3FE02B0BDE8F0870AF102031F
:100B20009DF80700C8F8003000F0E8FE012200231D
:100B300062F301030AEB020169F3820367F3C50361
:100B40000AEA040A0C4008EB8A0A62F3891308EBEC
:100B5000840866F39F23CAF80C30C8F80C5002B022
:100B6000BDE8F08701214B4661F3010369F382037D
:100B7000052161F3C50302EA0A02064808EB820276
:100B800069F389130AF1010160F39F23C8F800108B
:100B9000D360BCE7705B02008C2E00202DE9F0478B
:100BA0004C4E96E80C0093428AB070D0B06804E0D6
:100BB000C4F3891202EB9452134400EA0305023590
:100BC00006EB85020133546814F00302F0D0022AC8
:100BD00028D0C4F38312C4F3952C002A75D00DF1EC
:100BE000100E75469F1803EA000106EB81010133E0
:100BF000C96845F8041BBB42F5D10092C4F3C2009A
:100C000062467346D6F81044324D0021A04738B1F1
:100C100077603068C01B18BF01200AB0BDE8F087BC
:100C20006F68F6E703F1010A20EA0A010340013187
:100C300006EB830389004FEA94588845DA68DFF8A9
:100C400094E0C4F3891326D9A9B30AEA000C5FFA29
:100C500081F90EEB8C0CC9EB08010CF10C0C0EF1B8
:100C60000C00C9B202900391CDF800C0CDF80490F9
:100C7000C4F3C2000021D6F81474B847404520D010
:100C800006EB850560F38F146C607768C1E7002080
:100C90000AB0BDE8F08700EA0A000EEB80000C30D5
:100CA0008DE801010021DEF814C402910391C4F320
:100CB000C200E047E2E70EF10C0C08465FFA88F943
:100CC000D0E703300AEB9007A2E71F460DF1100EA4
:100CD00093E700BF8C2E00202DE9F84F234B1A78A4
:100CE0008AB3DFF88CB0DFF88C80DFF88C900024BA
:100CF0004FF0010A03E00134E4B2944223D226B259
:100D0000D8F80050DBF8003015F836000AFA00F188
:100D1000194205EBC607EED0154A23EA010313601A
:100D200001F058FF15F83650D9F800300AFA05F1ED
:100D30000B4000FA05F18B4207D00C4B01341A78B6
:100D4000E4B29442DBD3BDE8F88F79787B68A1F1F7
:100D50000101B1FA81F14909002BEED0091A2846A8
:100D6000B1FA81F149099847E7E700BFAC320020AA
:100D7000D4320020A8320020D032002070B50646C0
:100D8000114800F055FD40B9104D01242B68B440C6
:100D90001C4203D023EA04042C6070BD304601F0ED
:100DA00019FF0B4E326860B122432B68094932604B
:100DB0001C432C60044809680022BDE8704000F024
:100DC000DFBC22EA0402F0E7B0320020D432002077
:100DD000D0320020A4320020F0B5042A85B0174696
:100DE00002D8072005B0F0BD0191054601F0BCFD19
:100DF0000199002830D01C4CDFF888E01B481C4AC1
:100E00001C4B256000264C1E07608EF800101660F3
:100E10001E60E4B2032709B918E01C4623B205EBB3
:100E2000C30215F833009378134A8DF80D3003A9E7
:100E30008DF80C708DF80E608DF80F6001F09EFD3E
:100E4000631E0028CED1DBB2002CE6D10B4A0C4841
:100E5000002100F083FCC5E7019101F043FD0199F9
:100E60000028C8D0BEE700BFA8320020A43200206E
:100E7000D0320020D43200207D0D0200D90C0200B7
:100E80007C5B0200AC32002070B5084D2B785BB162
:100E9000074E00243368012113F8340001F038FEB6
:100EA0002B780134A342F5D8002070BDAC3200206D
:100EB000A832002000B585B000230390194644F203
:100EC000010001AAADF80430029300F003F805B068
:100ED0005DF804FB08B501200A49FFF7A1FDFFF703
:100EE0009BFDFFF75BFE0028FBD1BFF34F8F064948
:100EF000064BCA6802F4E0621343CB60BFF34F8F26
:100F000000BFFDE7805B020000ED00E00400FA0591
:100F10002DE9F041274A284B0025C2F84051C2F87C
:100F20004451C2F84851C2F84C51C2F80051C2F8BD
:100F300004511B681BB32149D2F804250C68204FCB
:100F4000141B1A6824F07F44A242A84609D8197CD1
:100F5000DE69A41A1544A1B91EB133461A68A2422B
:100F6000F5D9184B18491A780B789A421BD01749B3
:100F7000174A41F823504FF48013C2F80031BDE8FE
:100F8000F081D3F814C083F810803A689B696046FA
:100F900019462AB190470028DED0FFF78BFFDBE728
:100FA0001846E047D8E7531CDBB2022B08BF0023EA
:100FB0000B70DCE700100140DC320020D83200204A
:100FC000E0320020E4320020E5320020F032002040
:100FD00000E100E02DE9F04F884A8949137809784B
:100FE0008848994287B0D0F8009000F0148201330D
:100FF000DBB2022B08BF00231370834A52F8237020
:10100000804A07EB090323F07F4313604FF0010B85
:101010007E4BCDF80C90D3F800807D4B19785B782F
:1010200001931E467A4B5C6893F802E0794B93F883
:1010300000A0744B1B680293424643460020BC4606
:10104000B14217D001EB4105013114F83570C9B236
:10105000714508BF0021022F04EBC50576D0032F90
:10106000EED1002BECD0DA6918741346002AFAD1BD
:10107000B142E7D16749029881F800A06149DDF8E3
:101080000C900860614967460A60BBF1000F40F0B0
:10109000A281B8EB030218BF0122059203935D46BB
:1010A0001E46584BDFF87091D3F800C0574BD3F869
:1010B00000A0574BD3F804B093F800E09B7802935C
:1010C000544B1B78049300274FF0010835B369682F
:1010D000A8682C46ED69CCEB010222F07F424A451C
:1010E00056D8131823606760A76084F81080E76102
:1010F000002E7FD0316899425CD2304603E01168FF
:1011000099425ED21046C2695B1A002AF7D1236069
:10111000E2613346C4611E46002DD8D1019B9E4535
:101120007CD00EEB4E020BEBC2030EF1010E1BF84E
:10113000322002995C685FFA8EFE8E4508BF4FF040
:10114000000E012A44D033461E46E5E7D5F8049048
:10115000002B3FF475AF4B4500F038811F4600E08F
:101160002F46FD69002D3FF46BAFA945F8D1B94674
:10117000A9452F4600F02A81FD693F68C9F81C5037
:10118000002D3FF45DAF2B683B442B60134657E7BF
:10119000C1EB0C0121F07F41814202D2431A23604E
:1011A000A1E727606760A76084F81080E7610EB34D
:1011B00031680023CB1A33602346E661A2461E46FF
:1011C000AAE7C91A11602360E2613346C461A2E74D
:1011D000227C002AB7D199686160D868A0601A693A
:1011E000E2605B69A361049B002B3FF474AF656010
:1011F000294670E72346A2461E468DE7E4320020CA
:10120000E5320020D8320020F0320020DC3200200D
:10121000E8320020E6320020FEFF7F00854B83F895
:1012200000E0854BC3F800A0039BB34200F0C480EC
:10123000002E00F01181814C814BD4F804051B680D
:10124000804DD6F800C02978C21A22F07F420332BE
:10125000002952D17C4FDFF8F491DFF8F4814FF48C
:1012600080314FF4003E0126C4F84413C4F804133F
:10127000C7F880E1C7F800E026602F21D9F80040C8
:1012800000BF00BF00BF00BF00BF00BF00BF00BF66
:1012900044452FD000BF00BF00BF00BF00BF00BF4C
:1012A00000BF00BF00BF00BF00BF00BF00BF00BF46
:1012B00000BF00BF00BF00BF00BF00BF00BF00BF36
:1012C00000BF00BF00BF00BF00BF00BF00BF00BF26
:1012D00000BF00BF00BF00BF00BF00BF00BF00BF16
:1012E00000BF00BF00BF00BF00BF00BF00BF00BF06
:1012F00000BF00BF0139C3D12E7062452CBF9A18C0
:1013000003EB0C024D4922F07F43C1F84035D1F880
:101310000425121A1B1A22F07F4223F07F43033266
:101320009A424DD9D1F80435484AC1F8403512687F
:1013300047492F2300BF00BF00BF00BF00BF00BF51
:1013400000BF00BF8A422FD000BF00BF00BF00BF58
:1013500000BF00BF00BF00BF00BF00BF00BF00BF95
:1013600000BF00BF00BF00BF00BF00BF00BF00BF85
:1013700000BF00BF00BF00BF00BF00BF00BF00BF75
:1013800000BF00BF00BF00BF00BF00BF00BF00BF65
:1013900000BF00BF00BF00BF00BF00BF00BF00BF55
:1013A00000BF00BF00BF00BF013BC3D1264B4FF4BD
:1013B0000032C3F8002103E0059B002B7FF438AF17
:1013C000244A0023137007B0BDE8F08FDA6942B3F6
:1013D00013464F46D0E6002528462C46A3B119688F
:1013E000B9421BD8DA681C607F1A0844D9693AB13F
:1013F00000EB090626F07F46DD619A605E601D46BF
:101400000B460A46002BEAD10B49039301230A60DD
:101410000593039E45E60027BB46F9E5C91B196005
:10142000F2E7064B01259D604F4613460292AA46FD
:10143000A2E600BFE8320020DC32002000100140AC
:10144000D8320020F832002000E100E0B02C00206B
:101450000024F400E6320020484A494B494D4A48EE
:101460004FF480314FF400370124C3F88070C2F884
:1014700048132F23C2F80813546029681D4600BF83
:1014800000BF00BF00BF00BF00BF00BF00BF814260
:101490002FD000BF00BF00BF00BF00BF00BF00BF14
:1014A00000BF00BF00BF00BF00BF00BF00BF00BF44
:1014B00000BF00BF00BF00BF00BF00BF00BF00BF34
:1014C00000BF00BF00BF00BF00BF00BF00BF00BF24
:1014D00000BF00BF00BF00BF00BF00BF00BF00BF14
:1014E00000BF00BF00BF00BF00BF00BF00BF00BF04
:1014F00000BF013DC3D19460244A166000BF00BF05
:1015000000BF00BF00BF00BF00BF00BF81422FD09F
:1015100000BF00BF00BF00BF00BF00BF00BF00BFD3
:1015200000BF00BF00BF00BF00BF00BF00BF00BFC3
:1015300000BF00BF00BF00BF00BF00BF00BF00BFB3
:1015400000BF00BF00BF00BF00BF00BF00BF00BFA3
:1015500000BF00BF00BF00BF00BF00BF00BF00BF93
:1015600000BF00BF00BF00BF00BF00BF00BF00BF83
:10157000013BC3D1064B1E7022E700BF00100140A3
:1015800000E100E0B02C00200024F400D83200205C
:10159000F83200202DE9F04F12F0030402D00720AA
:1015A000BDE8F08F002AFAD0614D624EDFF88CC1A1
:1015B000DFF88C814FF4803E4FF400374FF0010983
:1015C000C6F88070C5F848E32F27C5F808E3C5F8CA
:1015D0000490DCF800C0BE4600BF00BF00BF00BFE3
:1015E00000BF00BF00BF00BFC4452FD000BF00BF79
:1015F00000BF00BF00BF00BF00BF00BF00BF00BFF3
:1016000000BF00BF00BF00BF00BF00BF00BF00BFE2
:1016100000BF00BF00BF00BF00BF00BF00BF00BFD2
:1016200000BF00BF00BF00BF00BF00BF00BF00BFC2
:1016300000BF00BF00BF00BF00BF00BF00BF00BFB2
:1016400000BF00BF00BF00BF00BF00BFBEF1010E62
:10165000C2D1DFF8F0E0C5F80890CEF8004000BF36
:1016600000BF00BF00BF00BF00BF00BF00BFC44538
:101670002FD000BF00BF00BF00BF00BF00BF00BF32
:1016800000BF00BF00BF00BF00BF00BF00BF00BF62
:1016900000BF00BF00BF00BF00BF00BF00BF00BF52
:1016A00000BF00BF00BF00BF00BF00BF00BF00BF42
:1016B00000BF00BF00BF00BF00BF00BF00BF00BF32
:1016C00000BF00BF00BF00BF00BF00BF00BF00BF22
:1016D00000BF013FC3D1DFF870C0DFF870B0164F14
:1016E000DFF86CA0DFF86C90DFF86C808CF80040BD
:1016F000CBF800304FF4801CE023B9703C707C7054
:10170000CAF8004089F8004088F80040C6F880C157
:1017100086F81433C6F800C0C5F8080586F81133FA
:10172000D5F80435CEF800307A602046BDE8F08F59
:101730000010014000E100E0E8320020B02C002061
:101740000024F400D8320020F8320020E0320020DB
:10175000DC320020E4320020E5320020074B5B68D9
:1017600023B12AB120B10368187C18B10820704752
:101770000720704759745A61704700BFE832002053
:101780002DE9F043274C636883B033B128B10429B5
:1017900007D8072003B0BDE8F083082003B0BDE8F8
:1017A000F0834369002BF8D0054602A86B7C002625
:1017B000012B00F8016D0CBF8946B14690460F46DB
:1017C00000F074F86378A07821785A1CD2B2904265
:1017D00008BF324691421FD003EB43036068DB0031
:1017E000C11819D04FF0010E00F803E00E4B4D6008
:1017F000D3F804358B609DF80700CF60C1F81090D6
:10180000C1F81480627000F079F8084B4FF4801230
:101810003046C3F80021C1E79DF8070000F06EF8DC
:101820000420BBE7E83200200010014000E100E0A6
:10183000F0B51C4D6B6883B053B348B343693BB3F9
:10184000044602A8002600F8016D267400F02EF868
:101850006B78A87829785A1CD2B2904208BF3246D9
:10186000914218D003EB43036968DB00CF1812D014
:101870000220C8547C609DF807006A7000F03EF8B2
:10188000094B4FF480123046C3F8002103B0F0BD7D
:10189000082003B0F0BD9DF8070000F02FF80420E9
:1018A000F7E700BFE832002000E100E0F0B4EFF31A
:1018B000108472B60E4B9A68B2B90E4901259D602C
:1018C000D1F880700C4D2E463D401D60C1F88060FF
:1018D000D1F884505D604FF0FF33C1F8843002705E
:1018E00004B962B6F0BC704701230370F8E700BF8B
:1018F000EC36002000E100E0FC06FFBC094B9A68D2
:1019000072B168B910B4EFF3108272B606491C6860
:101910000C605C684C60986002B962B65DF8044B7C
:10192000704700BFEC36002000E100E0F0B54368EE
:101930004BB1304A1468A34205D35268934202D88F
:1019400013F0030234D00023DFF8B0E00B804FF037
:10195000010C4FF6FF75DEF80470002307F5805484
:10196000C3B15A88033203EB8203A34216D21A682A
:10197000013213D09A881E88AA42F2D0002EF0D0ED
:101980009E6802689642EBD11B4A4360138903812B
:101990000120F0BD07F10803A342E8D3BCF1020F18
:1019A000A1F800C00EF1100E21D04FF0020CD2E7CA
:1019B000114C05892489A542C5D105689C68A542BA
:1019C000C1D10E4C6068834205D900F58050834236
:1019D00001D2134608E06269934208D902F58052A9
:1019E000934238BF012302D20B800120F0BD0020BA
:1019F000F0BD00BFC42C00207433002054330020FD
:101A00002DE9F04FB04C256FEF007E1BB6008FB074
:101A1000A35D5A1E824604EB060BA046052A00F27F
:101A2000FE80DFE802F05230301D1D0300285AD13D
:101A3000DFF8B09299F80C30002B00F0678399F82A
:101A4000003089F80C00013B062B00F2E780DFE84C
:101A500013F01C03AF0292016E01E5009D02F1023A
:101A6000002841D1C5EB070904EB890999F8042046
:101A7000012A00F0B783C0F09F83022A40F0CF8094
:101A800000220A9238E07A1B04EB820202F108017C
:101A90008E48B1F80A90039000EB0919BAF1000FD3
:101AA00040F0AC80B9F80800D9F80420097A02EBBC
:101AB0008002062900F2A383DFE811F07401CD0152
:101AC000AD011D020302ED01AA01002840F08E8045
:101AD0009BF80430032B00F25884DFE813F01B015D
:101AE0000701E400B2000623012018F806200A903E
:101AF000023A012A40F29B80013B052B07D8DFE820
:101B000003F02D664F3E310305238DF82430704DD0
:101B100005F1200655F8043F0BB109A89847B542D6
:101B2000F8D1206F684DC0EBC00004EB80000021AD
:101B30001C22FDF707FD636F43B12A6F0132013BA1
:101B400002F003026B672A67002B6AD1614A13789F
:101B500023F0040313700FB0BDE8F08F00238DF85D
:101B60002430D4E77B1B04EB83030422DB88ADF82D
:101B7000303000238DF82420ADF83230C7E77B1BCE
:101B800004EB83031A46DB8832F8081FADF83030C7
:101B900053680B930323ADF832108DF82430B6E769
:101BA0007B1B04EB83031A7C1889DD6899880B95ED
:101BB000A2F106030222B3FA83F35B098DF83430F5
:101BC000ADF83000ADF832108DF824209FE77B1B74
:101BD00004EB8303012218899988DB68ADF8300093
:101BE000ADF832100B938DF8242090E739490A782C
:101BF000012322F001020A70184676E7D088B9F86E
:101C00000A20B9F8081000F1030E121A7144033AC1
:101C1000A9F80810A9F80A20012066E706230F207A
:101C200063E70020FFF7ECFE0FB0BDE8F08F2A4A13
:101C30009BF81660106C516C3044891B1064516421
:101C40005AE7DFF8A490254AD9F8001024484FF04D
:101C5000000A0223CDF800A000F070FC214BDFF851
:101C60006CC05B88D9F80010B9F804E08BF804A0C8
:101C70001B010CEB03020CF803A05368C9F80030F9
:101C800002235160A2F808E0A9F8043000283FF4CC
:101C900062AF7B1B14F823300E490A7822F0010250
:101CA0000A700E2021E7DFF840900D48D9F80010A7
:101CB0000122002300F08CFC02220023A9F804205A
:101CC0008BF80430E2E700BF843300205433002057
:101CD0000C3400200C340020FC320020A45B0200F5
:101CE000C42C002074330020FC330020C54B039328
:101CF00019461B78022B00F045830B7C022B00F069
:101D00002D83C14A137843F0020323F001031370BB
:101D10000123B5E6BD4BBE481968BE4A00230093B7
:101D2000022300F00BFC01238BF80430AEE7B9F876
:101D30000220B44BDFF8F49203EB02129389002BDC
:101D400000F0BF82DFF8C4E2B148DEF800104FF0C7
:101D5000020A4FF0050C01220023AEF804A089F816
:101D600000C000F035FC00283FF4F5AE1C2303FB57
:101D700005F3E35CB9E6D9F80420A4495388B1F827
:101D800004C00968A2484FF0000ECDF800E003330C
:101D90004FF0030E9BB201EB8C0189F800E000F0DC
:101DA000CDFBE0E7C5EB070A4FEA8A0A04EB0A0C11
:101DB0000023114600930CF1040201239448CDF84E
:101DC0000CC000F0BBFBDDF80CC002238CF8103017
:101DD00000283FF4C0AE904B13F80A300E20791B58
:101DE00004EB8101B9F80A20B1F806E0B9F808104F
:101DF0000EF1030CCEEB020241F61D5E6144033A84
:101E00007045A9F80810A9F80A203FF439AE6CE62D
:101E100041F61D50E3E7C5EB070A4FEA8A0A04EBD7
:101E20000A00002302F10801009300F10C020123D3
:101E3000774800F083FB04EB0A0377499A7D002A78
:101E400014BF032201221A7400283FF484AE11F853
:101E50000A300E20C3E77B1B4FEA830C04EB0C0A0D
:101E60000AF1080A0023111D009352460123684815
:101E7000CDF80CC000F062FBDDF80CC014F80C309B
:101E8000032B0CBF052206228AF8082000283FF405
:101E900062AE0E20A3E7614B614AB3F800A051681F
:101EA0005B48604A00230093012300F047FB0028B1
:101EB00000F01D827B1B9B00E2180621E35C11747D
:101EC000E7E77B1B4FEA830A04EB0A01544B88695E
:101ED00018604FF0000E514903921846C3F804E011
:101EE000FFF724FD039A00287FF45CAF4A4B0A20D9
:101EF00013F80A30F9E5DFF838E1DEF844300393EF
:101F0000002B00F07A81DEF8401041485EF8311075
:101F100006917B1BDEF8401004EB830303F1100AEB
:101F2000013104910399BAF804C005930139DEF830
:101F30004030CEF8441002EB8C01049A0EEBC30340
:101F400002F0070CCEF840C04FF0000E0793069A3F
:101F50009B88CDF800E000F0F1FA079A9AF8063075
:101F60009188BAF80420013B0A44DBB2AAF80420A5
:101F70008AF8063013B9059A0123137400283FF438
:101F8000EAAD7B1B0E2014F8233028E7B9F80230A5
:101F90001C4A03921B011A44002351680093062334
:101FA00089F80030204A1A48022300F0C7FADAE61E
:101FB000D9F80430B9F802E0002B00F0BF81114AD3
:101FC000039211464FEA0E1E5A8871440332496843
:101FD00003EB820201F58050824280F08980136811
:101FE000013318BF4FF6FF7C00F082809388B2F86F
:101FF00000A0634572D0BAF1000F6FD0C9F8042079
:10200000BBE600BF543300200C340020FC3300201A
:10201000C42C00209C5B0200843300204433002049
:1020200048330020985B0200A45B02007433002058
:10203000FC320020B94BBA4A1968BA484FF0000E7A
:102040004FF0070CCDF800E00223C9F804E089F84E
:1020500000C000F073FA86E6B34BB9F808101A789E
:102060001B7CB2FA82F2B3FA83F352095B090131A5
:102070004FF0000E012089F80A2089F80B30A9F8EA
:10208000081089F80CE089F8000099F80A30A74A8E
:1020900053B1A54B03939B890021917223B9A24AA6
:1020A000927B002A40F0AF8199F80B309F4A53B1E0
:1020B0009D4B03939B8B0021D17223B99A4B9B7F3D
:1020C000002B40F064817B1B002214F8233089F838
:1020D0000020A9F80220C9F80420D1E45388033372
:1020E00002EB8302824203D2136801337FF47EAF96
:1020F000039B73449B89002B7FF424AE8948012203
:1021000000F066FA042389F800302CE699F80030D4
:10211000072B3BD801A252F823F000BF5920020040
:102120008D2102008D210200712102004521020053
:1021300035200200352002003D210200012389F8EC
:102140000030A2E7784AB9F80230039211461B0129
:10215000724A19441068B2F804E0D1F804C048602B
:102160000220C2F800C09080A1F808E0039A12E7AC
:102170006A48D9F8043081885A88B9F802E01144D5
:1021800003310222818089F8002018E7013B062BE9
:102190003FF644AD01A252F823F000BF8B200200AD
:1021A000B11F0200771D02002F1D02001D1C02003E
:1021B0008D1F0200352002000EA8D9F80C3040F81F
:1021C000143D0DF12201CDF828A0CDF82CA0FFF789
:1021D000ADFB002877D10A207B1B04EB830302228E
:1021E0001A71C0E5524B1B789B070AD4014608229E
:1021F0005048FDF7A7F90220B8E51B68FFDE0F2065
:10220000EDE5DFF830E1BEF804300493012B19D876
:10221000454B0690059503934FF6FF704D46049B82
:1022200003994FEA031A01EB0A0211F80A3093B13D
:10223000049B01339BB20122022BAEF804300492BE
:10224000EDD1059D3B4800210822FDF77BF97B1B62
:1022500014F8233014E45368DEF80090079303F574
:102260008052B9F1000F4ED0B9F80210033109EBDA
:102270008101914221D20B6801331ED08B88B1F8C5
:1022800000C0834214D0BCF1000F11D0B5F806C0D5
:10229000CEF800109C458946E3D1002300932148E5
:1022A000254A059D012300F049F980B30E205DE524
:1022B0004B88033301EB8301DBE7069BCEF800304C
:1022C000B6E751681AE70A9916488B88A9F80630CC
:1022D000B1F800E0184ACDF800A00123A9F808E001
:1022E000BDF8229000F02AF988B30E2074E7039B12
:1022F0007D1B03EB0A1A04EB8504062201232274DA
:102300008AF80E3027E4079B03F10801B1E7039B2D
:1023100053449A4601238AF80E301CE4FC33002013
:102320009C5B0200C42C0020543300207433002036
:102330000C34002004340020985B0200334B0393DC
:102340004FEA0E1E7344596801F1080242E62F4B12
:1023500003EB0913012250469A733DE74FF0010940
:10236000039B2B482B4A4FEA09194B444FF0000AB4
:102370005968CDF800A0022300F0E0F8039B03F8B1
:1023800009A083E44FF00009EAE7012384E4012374
:102390001946D9F80420A9F802306AB3039B03EB6D
:1023A000011153884968033302EB830201F5805021
:1023B000824218D21368013318BF4FF6FF7E03D153
:1023C00011E0136801330ED09388B2F800C0734552
:1023D00003D0BCF1000F7FF411AE5388033302EB3E
:1023E00083029042EDD800230948012200F0F0F862
:1023F000042389F80030B6E4039B03EB011149681C
:1024000001F10802D2E71946C3E700BF54330020A8
:10241000C42C0020A45B02000846FFF7F1BA00BFFD
:1024200029DF704728DF704770B50C4D696E0429AD
:1024300011D02B6E0B44032B88BF043B182202FBE8
:10244000035406464B1C204600216B66FDF77AF8C4
:102450003460012070BD002070BD00BF3434002006
:10246000F0B5344B1D7815F0060F85B060D1324AB7
:102470001C46516E176E45F0020316462370002964
:1024800056D0182303FB07231A7A012A05D0022A03
:1024900021D19889FFF7C6FF14E0D98A9A8A1823B8
:1024A00003FB0763083398685B68521AB2F5806FC4
:1024B0004FEA81010844B4BF92B24FF480621944DC
:1024C000FFF7AEFF112805D125F0020545F0040500
:1024D00025702DE060B3002110226846FDF732F828
:1024E000182303FB076303F108011A7A012A0CD0B1
:1024F000022A12D18B88CA88ADF80A309B1A0122B1
:10250000ADF808308DF8002007E09A8A89680291BA
:102510000023ADF80C208DF80030182303FB07F7DB
:10252000F219F3595268019268469B68092198474D
:1025300005B0F0BD303400203434002030B5214CDB
:102540002578EC0787B012D5044610B11E488442A6
:1025500002D2022007B030BD1C488442F9D24AB1F1
:1025600041B142EA0100800706D00620F2E70120CF
:1025700007B030BD0320EDE72068814201D205207D
:10258000E8E7656801EB83008542F8D30BB90420C6
:10259000E0E705A8039302920191FFF745FF01A927
:1025A0000EC908B90720D5E7059D2C6005980A9C3F
:1025B0006C600124C260016183820472FFF750FFE6
:1025C0000020C7E730340020C42C0020D42C002089
:1025D00030B5204C2578EC0787B010D5044610B1F3
:1025E0001D48844202D2022007B030BD1B488442FD
:1025F000F9D261B1C1F30B0020B10620F4E701204C
:1026000007B030BD2068814203D20520ECE70320EB
:10261000EAE7656801EB02308542F6D30AB9042087
:10262000E2E705A8039302920191FFF7FDFE01A9DD
:102630000EC908B90720D7E7059D2C6005986B6087
:10264000090B0223818102820372FFF709FF002038
:10265000CAE700BF30340020C42C0020D42C002056
:102660004FF0A043044AD3F80435125CD34003F082
:10267000010080F001007047AC5B0200044B195C64
:102680004FF0A04201238B40C2F80C35704700BFC9
:10269000AC5B0200044B195C4FF0A04201238B405D
:1026A000C2F80835704700BFAC5B02004FF0A04392
:1026B00010B44FF480204FF400344FF400214FF455
:1026C0008012C3F80845C3F80805C3F80815C3F815
:1026D00008255DF8044B70474FF0A04310B44FF449
:1026E00080204FF400344FF400214FF48012C3F8DF
:1026F0000C45C3F80C05C3F80C15C3F80C255DF8A0
:10270000044B7047074B4FF0A041185CD1F80435DB
:102710000122824022EA03001340C1F80805C1F8F3
:102720000C357047AC5B020030B44FF0A04303227D
:102730004FF400354FF480244FF400204FF4801103
:10274000C3F84427C3F84827C3F84C27C3F85027D9
:10275000C3F80855C3F80845C3F80805C3F80815B9
:1027600030BC70470D2809D00E2809D00F2809D099
:10277000102814BF4FF0FF3003207047002070472F
:10278000012070470220704710B51D4B1A6882B0B7
:10279000F2B91C4B1A680AB902B010BD00221A60C7
:1027A0001B6801934FF080430222174C0199C3F834
:1027B000082323690122A270002BEDD01A68226140
:1027C0005B68012098472369002BF7D102B010BD48
:1027D00000221A601B6800934FF0804301220A4CCC
:1027E0000099C3F80823A3686270002BD1D01A683F
:1027F000A2605B6800209847A368002BF7D1C8E768
:1028000000010040040100409C34002000B17047EA
:1028100010B5064CA3683BB11A68A2605B68002043
:102820009847A368002BF7D110BD00BF9C3400204F
:1028300010B582B002A80023144C00F8013DFFF748
:1028400035F8237893B9124A6360E3601068A36097
:1028500010F00100236114D002F094F920B94FF078
:1028600080430122C3F8182501232370E3689DF8F3
:10287000070001330122E360A270FFF73FF802B0C6
:1028800010BD072100F006F8E6E700BF9C340020E9
:1028900000E100E0002810B418DB00F1604303F50C
:1028A00061434901C9B283F80013C3B240098000F3
:1028B00000F1604000F5614003F01F0201239340E6
:1028C000C0F8803103605DF8044B7047C3B2044A1E
:1028D00003F00F0449012244C9B21176E6E700BFB4
:1028E000FCEC00E030B51D4C94F8545083B015B1A9
:1028F000082003B030BD4FF0FF33FF220620072130
:1029000023636363A363E36323646364A364E36493
:1029100023606360A360E36023616361A361E3619B
:10292000236284F850306362A36284F85230E36219
:1029300084F8533084F85120FFF7ACFF084B094A64
:102940001D601B68019301984FF000430121284648
:1029500084F85410C2F8043303B030BDB034002002
:102960007C61004000600040034B93F8540000304D
:1029700018BF0120704700BFB0340020F0B5634C91
:10298000251895F93030002B01DB0820F0BD91F8B7
:1029900003E09446BEF1000F56D02368013300F0E7
:1029A000AD80082600256B1C584F54F823200132B7
:1029B00051D0AB1C9E4245D957F8232001324AD052
:1029C000EB1C9E423ED957F82320013243D02B1DE9
:1029D0009E4237D957F8232001323CD06B1D9E42CE
:1029E00030D957F82370013735D0AB1D9E4229D915
:1029F00054F82320454F01322DD0EB1D9E4221D9A2
:102A000057F82320013226D005F108039E4219D938
:102A100057F8232001321ED005F109039E4211D937
:102A200057F82320013216D005F10A039E4209D936
:102A300057F8237001370ED00B35AE4202D9E36A46
:102A4000013307D00420F0BD236A01334ED00C2699
:102A50000825A8E70B232618DDB244F823C086F822
:102A60003050BEF1000F02D1234483F848008B7828
:102A7000ABB94A784FF0A04600F5E073920046F8F3
:102A80002320CB78ABB96AB2083A1444097894F899
:102A9000502042EA811284F850201846F0BD83008D
:102AA00003F1A043D3F8002722F00202C3F8002765
:102AB000E7E76BB29B0003F1804303F5C0430A785C
:102AC000D3F8101521F4473121F44071C3F81015E3
:102AD0001204000202F44031D3F8104500F4F85219
:102AE0000A432243C3F810250020F0BD082685F8CC
:102AF00030603346C4F820C03546B5E7002385F87A
:102B00003030C4F800C01D46B1E700BFB03400202B
:102B1000F0B42E4D2E1882B096F8302053B2072B09
:102B20001CDD2B4493F848309B09032B40D0012B2C
:102B30000CBF4FF400314FF44031800000F1A04051
:102B4000D0F8002722F44032C0F80027D0F8003730
:102B50000B43C0F8003702B0F0BC7047072AFAD820
:102B6000980000F1804000F5C04003F1400292005F
:102B7000D0F8104592B202F18042002744F00104DF
:102B800002F5C042C0F8104501970198176000296E
:102B9000E1D096F9302055F82220002ADBD001221E
:102BA0000B4902FA03F3C1F8043302B0F0BC7047DA
:102BB0004FF0A043D3F81035C34013F0010F14BFFA
:102BC0004FF440314FF40031B7E700BFB03400207C
:102BD000006000404FF0A043D3F8103523FA00F016
:102BE00000F00100704700BF2DE9F04786B00026D5
:102BF000A24B01961A68012A00F03281A04B1A6894
:102C0000012A00F01F819F4B1A68012A00F00C81F5
:102C10009D4B1A68012A00F0F9809C4B1A68012A22
:102C200000F0E6809A4B1A68012A00F0D380994B95
:102C30001A68012A00F0C080974B1A68012A00F038
:102C4000AD80964B1A68012A00F09B8016F0FF0FAA
:102C50001AD0934F01250024A30003F1804335428D
:102C600003F5C0434FEA45050BD0D3F8100557F8DC
:102C70002420D3F81015C0F30420C1F3014102B1A0
:102C800090470134082CE7D1002E02DB06B0BDE8E6
:102C9000F087844D00224FF0FF33A5F153070292D5
:102CA0000393814C4FF00008012614F8011FFF29FF
:102CB0002BD0C9B221F0C00006AB4FEAD00E03EB17
:102CC0000E0201F0070312F80CCC06FA03F31CEA1B
:102CD000030F1AD007EB000C89099CF930C057F894
:102CE0002CC0BCF1000F3CD003293CD04FEA800E31
:102CF0000EF1A04E12F8149CDEF8002719EA030F1B
:102D0000C2F3014211D1032A36D0AC42CDD1B8F181
:102D1000000FBBD04FF0A043019AD3F81035934277
:102D2000B4D0029A01930392BBE7022AEDD10329A2
:102D300004D0BCF1000FE8D0E047E6E74FF440399B
:102D4000DEF8002722F44032CEF80027DEF8003704
:102D500008F1010849EA03035FFA88F8CEF8003762
:102D6000E7E70329D1D10DF1080A1AF80E9049EAD4
:102D700003090AF80E90B9E70329DAD14FF40039B4
:102D8000DEE700221A601B6805934FF0A043059A06
:102D9000D3F81035019346F0004657E7434AD2F87E
:102DA000042312067FF54DAF00221A601B680493BE
:102DB000049B46F0800644E73C4AD2F804235106BF
:102DC0007FF53AAF00221A601B680493049B46F01B
:102DD000400631E7354AD2F8042390067FF527AF45
:102DE00000221A601B680493049B46F020061EE72D
:102DF0002E4AD2F80423D4067FF514AF00221A60BD
:102E00001B680493049B46F010060BE7274AD2F890
:102E1000042315077FF501AF00221A601B68049395
:102E2000049B46F00806F8E6204AD2F80423570728
:102E30007FF5EEAE00221A601B680493049B46F0F7
:102E40000406E5E6194AD2F8042392077FF5DBAEC3
:102E500000221A601B680493049B46F00206D2E627
:102E60001249D1F8041311F0010105D01E601B684E
:102E70000493049B1646C1E60E46BFE6006100407F
:102E800004610040086100400C6100401061004096
:102E900014610040186100401C6100407C610040EA
:102EA000B034002003350020FF34002000600040D3
:102EB000F0B50479724E6401331987B0DD7E1833A2
:102EC00015B1082007B0F0BD4D7F1D710D686B1C5A
:102ED0000BD04FF0A0470123AB40C7F808350B6873
:102EE00003F5E073032547F823504B685F1C06D0B9
:102EF00003F5E0734FF0A045002745F823700379F0
:102F000006EB43131B7F002B4DD003688D69C3F87C
:102F100024550F7D4B7D05683B43C5F86C35036830
:102F20000F684D68C3F80C75C3F814550B7D012B61
:102F300000F09B80331905465A600B6950483351A5
:102F4000EAB12B79097F2A6800EB4310037F002B3D
:102F500065D1C2F81C31D2F81C712A680197019F13
:102F6000C2F84431D2F844212B6846480092009AB6
:102F7000C3F80403286840F30730FFF78BFC2B7974
:102F80002A6806EB43131B7F002B44D00823C2F8AA
:102F90000035344400200121E075A0752076A0762C
:102FA000E17607B0F0BD05688F69C5F8247591F822
:102FB00014E04D7D07684EEA0505C7F86C550568B5
:102FC000D1F800E04F68C5F81475C5F80CE50D7D23
:102FD000012DAFD18D686F1C05D005F5E0754FF060
:102FE000A04747F82530CB685D1C0DD001254FF078
:102FF000A04705FA03F3C7F80835CB6803F5E0737B
:10300000032547F82350CB6805688F68C5F8083555
:10301000C5F810758EE70423C2F80035B9E7002320
:10302000C2F81031D2F810712A680597059FC2F8CE
:103030002031D2F820712A680497049FC2F8243105
:10304000D2F824712A680397039FC2F84431D2F85A
:1030500044212B6802920C48029AC3F804032868A2
:1030600040F30730FFF716FC89E78B685D1CBAD088
:1030700003F5E0734FF0A045002745F82370B2E751
:10308000083500208000020010030200F0B503792B
:103090003D4A04685B01D118097F00296DD00021E9
:1030A000C4F80015D118384C4968B1B1017904EB66
:1030B0004114217F002963D10168344CC1F80843D1
:1030C0000168334E090B4CB26409203401F01F0132
:1030D000012505FA01F146F824100179076802EB91
:1030E0004111D7F80C65097FD7F814554FF0FF3E12
:1030F000A9B3D7F80815D7F81045C7F80CE5C7F8F5
:1031000014E50068C0F808E5C0F810E5771C06D0A3
:1031100006F5E0764FF0A040022740F826706E1CBE
:1031200006D005F5E0754FF0A040022640F8256076
:10313000651C06D004F5E0744FF0A040022540F86D
:103140002450481C06D001F5E0714FF0A040022445
:1031500040F8214013440022DA765A60F0BDD7F8D7
:103160000815D7F81045C7F814E5C7F80CE500684E
:10317000C0F808E5C0F810E5C8E7C4F8001591E705
:103180000168044C9AE700BF083500208402020061
:1031900000E100E0100302002DE9F04103795A4DEF
:1031A0005B01EC1886B0247F44B101F06044B4F1B7
:1031B000005F03D0102006B0BDE8F0812B44DFF89B
:1031C00048E19F7D1FB1112006B0BDE8F0819960F4
:1031D0009A759F82067976010EEB06010B7F2BBB59
:1031E0000268C2F81C31D2F81C410268059401241F
:1031F000059F94600468D1F808C0C4F81C31D4F865
:103200001C310493049B8F8A8B8AD1F804E0BFB2EF
:1032100001331CF807709BB28B82C4F81C75BEF199
:10322000000F33D0002006B0BDE8F08103688A6843
:10323000C3F82071D3F8204103680294029CC3F8BC
:103240005871D3F85841036801948C7D019FC3F8ED
:103250004425C3F84845036801229A604B68002B57
:10326000E0D1026801E0002B4CD1D2F82011D2F855
:103270005831003318BF01230029F4D0002B0CBFB4
:1032800000200F20AB1900229A7594E78F7D8B8A5E
:1032900001F110029BB2BB4226D2046804E093887D
:1032A0009BB2B3F5807F05D0D4F81C3101F1100238
:1032B000002BF4D001F1100293889BB2B3F5807F0C
:1032C000E5D0C4F81CE1D4F81C310393039BB2F899
:1032D000048093881FFA88F801331CF808809BB299
:1032E0009380C4F81C85D2E793889BB2B3F5807FA6
:1032F00008D00268D2F81C31002BFBD00123D36028
:103300000020BFE70F20BDE7083500200279044BFD
:1033100003EB4213987D003018BF0120704700BFB7
:1033200008350020F0B59B4C237F8FB0002B75D162
:10333000994AD2F80413890548D4974BD3F804234B
:10334000520704D5D3F80821002A40F0CA80924BD6
:10335000D3F81C21C2B1A28AA07D8E4992B28242CA
:103360004FF00002C3F81C2180F0A980D3F81C2183
:103370000692069A888A8A8A8D6880B20132285C11
:1033800092B28A82C3F81C05834BD3F84421DAB188
:103390000022C3F84421D3F84411A27E0491049979
:1033A000002A40F08980E27D7A4B6AB10022587E83
:1033B000D968DA7501228DF830000B918DF828203C
:1033C0000AA893E8060090470FB0F0BDD2F8241188
:1033D0000029B2D0C2F82431D2F82411A37E07917B
:1033E0004FF401710798C2F808130BB90123536019
:1033F000694A02238DF82830D2F88034C2F880342C
:10340000E07DE2680D9300238DF83000E3752376AC
:1034100021680B9263680AA8984798E75E4BD3F837
:103420002421002A40F09380D3F8101161B1C3F831
:103430001021D3F8101103910399D3F83C15E07DC6
:10344000C9B2884200F0AA80534BD3F84421B2B1EC
:103450000022C3F84421D3F84411E07D0191019981
:103460004C4960B1D3F83C35C8688DF83030012341
:10347000CA750B908DF828300AA80AC99847464BA0
:10348000D3F82021002A9FD00022C3F82021D3F8AE
:103490002011A07D009100993E49002894D0D3F8D6
:1034A0004C058B688DF830008A750B938DF82820B9
:1034B0000AC90AA8984787E701221A6073E7D3F878
:1034C0001C310593059B00283FF45EAF8B688DF897
:1034D00030008A750B938DF828200AC90AA89847EE
:1034E00052E7E17D2B4A002970D00021C3F8081172
:1034F000D3F8081108910899D068517ED3F818358F
:103500004354537ED17D0133DBB25376627E214B2F
:103510008A427FF41CAF1A7E002A6DD19B7E13B9BC
:103520001D4B01225A601C4AE06863684FF4017128
:10353000C2F80813627E8DF83020002501220B901E
:103540002168E5758DF828200AA89847FFE6002233
:10355000C3F82421D3F82411029102218DF82810F8
:103560000299D3F88014C3F880140D91D3F83C1558
:10357000E368E27522768DF830100B93216863685A
:103580000AA89847044BD3F84421002A3FF477AFA8
:103590005EE700BF0835002000200040217EF1B129
:1035A000D3F80072E17527F02001E6682569C3F8B9
:1035B000001201238DF830008DF828302276216822
:1035C0000B96E56063680AA898473DE7C3F80811C1
:1035D000D3F808210992099AD3F8183596E7E268DA
:1035E000E17501238DF830008DF828300B9294E8B6
:1035F0000A000AA8984727E7DE685D7E1869DA7531
:1036000001210022D8601A765A768DF828100B9680
:103610008DF8305093E806000AA8904797E600BF5F
:103620000220FFF76FB800BF2DE9F0470D460646B0
:10363000FFF798F8032804461DD8012D1FD00ED39C
:10364000022D1AD11E4B00EB40041C44657895B145
:103650001C4B1B687BB12846BDE8F04718471A4849
:10366000FEF7E6F81649194A04EB44030B44155DCE
:103670009B789D42EBD0BDE8F087BDE8F087DFF88E
:10368000408047003B1808EB030218F803505378BA
:103690002BB9274447440D4BBA781A55D7E70C4B42
:1036A000DFF830901968084801EB810149004A466B
:1036B000FEF766F80028ECD189F80060E9E700BF62
:1036C000A43500205C3500206035002050350020F6
:1036D00058350020283500207F4B1B68DB0700D4BD
:1036E000704770B57D4E7E4D33782C789BB9172C82
:1036F00010D8DFE804F0666B6B879CB0C2AA241573
:10370000241582313131313151565ECF0C0CFEF728
:10371000E3FF2C7070BD00233370FEF7C7FFE6E7B0
:10372000012318463370FEF7EDFF6E4B6E481968A3
:10373000002201EB8101BDE87040FEF721B80123B2
:1037400018463370FEF7DEFF664B674819680022A3
:10375000BDE87040FEF714B86448FEF769F8D4F18C
:103760001104024600F0A180002840F09E80012C48
:103770000DD0C8255E4B5B495C48096805FB04F425
:10378000A3FB04435B0901FB03F1FDF7F9FF0220F2
:10379000BDE87040FEF772BFFEF788FF12232B7062
:1037A00070BDFEF783FF0020FEF768FF13232B7028
:1037B00070BDFEF77BFF0120FEF760FF14232B7026
:1037C00070BDFEF773FF00232B7070BD0020FEF765
:1037D00047FF002879D00020FEF75CFF022C0CBFC9
:1037E000122328233F4A2C7011683F4801FB03F144
:1037F0000022BDE87040FDF7C3BFFEF76DFF0C234C
:103800002B7070BD0020FEF72BFF002856D0002043
:10381000FEF740FF0822334B3348196803232B700F
:1038200001FB02F1BDE870400022FDF7A9BF0020B6
:10383000FEF716FF00283DD00020FEF72BFF2822C0
:10384000284B294819680423E9E70020FEF716FFF2
:1038500007232B7070BD0020FEF702FF90B30020FD
:10386000FEF718FF1F4B2048196805232B704900ED
:103870000022BDE87040FDF783BF0020FEF742FF45
:10388000184B1948196806232B700022BDE87040B8
:10389000FDF776BFFEF70AFF0020FEF7EFFE0120DE
:1038A000FEF7ECFE15232B7070BD0220BDE87040C2
:1038B000FEF7F0BEFEF7E2FE0422C1E7FEF7DEFEF1
:1038C0000222A8E7FEF7DAFECCE7FEF7D7FE022CCD
:1038D0000CBF0223042385E72C350020543500203B
:1038E00080350020583500203035002084350020F8
:1038F0001F85EB5110B50078FEF734FF03280BD875
:10390000064B00EB40001844407828B1044B1B687C
:1039100013B1BDE81040184710BD00BFA43500200A
:103920005C35002070B5964B1A6812F0010202D186
:103930001646304670BD934D2B780446E3B9172CDC
:1039400000F21C81DFE814F0E600ED00ED00540009
:103950006B008200970046002C001D002C001D000B
:10396000A500AC00AC00AC00AC00AC00CB00D200B9
:10397000DC0039004E004E0000232B70FEF796FE4F
:10398000DDE7012318462B70FEF7BCFE7E4B7F4817
:103990001968002201EB8101BDE87040FDF7F0BE1F
:1039A000012318462B70FEF7ADFE774B7748196858
:1039B0000022BDE87040FDF7E3BEFEF777FE002071
:1039C000FEF75CFE0120FEF759FE714B15221A70BE
:1039D0000026AEE70020FEF751FE6D4B07221A705D
:1039E0000026A6E7FEF778FE694B00261C70A0E7CC
:1039F0000020FEF735FE002800F0BC800020FEF716
:103A000049FE08226049624B0968604803241C7023
:103A100001FB02F1BDE870400022FDF7B1BE0020BD
:103A2000FEF71EFE002800F09E800020FEF732FE0A
:103A300028225549564B0968544804241C7001FB40
:103A400002F1BDE870400022FDF79ABE0020FEF7AB
:103A500007FE002800F08B800020FEF71BFE4A4A7C
:103A60004B4B1168494805241C7049000022BDE8F1
:103A70007040FDF785BE0020FEF744FE444B424AED
:103A80004248116806241C700022BDE87040FDF712
:103A900077BEFEF721FE3E4B0C221A70002648E747
:103AA0003C48FDF7C5FED4F11104064650D000286D
:103AB0004ED1012C0FD0C825374B33493548096802
:103AC00005FB04F4A3FB04235B09324601FB03F16D
:103AD000FDF756FE06460220FEF7D0FD29E7FEF769
:103AE000E5FD2B4B12221A70002622E7FEF7DEFDC1
:103AF0000020FEF7C3FD264B13221A70002618E79C
:103B0000FEF7D4FD0120FEF7B9FD214B14221A70F7
:103B100000260EE7FEF7CAFD1D4B00221A7016465E
:103B200007E70020FEF79CFDB0B10020FEF7B2FDD4
:103B3000022C0CBF122328231349154A096814705C
:103B4000124801FB03F10022BDE87040FDF718BEEA
:103B50000220FEF79FFDECE6FEF790FD022C0CBF65
:103B600002230423E8E7FEF789FD042261E7FEF75C
:103B700085FD74E7FEF782FD022243E70026D8E6C2
:103B80002C350020543500205835002030350020D9
:103B900080350020843500201F85EB51F0B5224D83
:103BA000224E234B2860044610F0020083B031609F
:103BB0001A6014D01F4B20484FF00E0E0F2710260E
:103BC00011254A0883F800E00421DF709E715D72C0
:103BD000FDF702F9A0B1E3071DD403B0F0BDE20781
:103BE00019D41648164A0021FDF7B8FD0028F4D173
:103BF0001448154A012103B0BDE8F040FDF7AEBD01
:103C0000FDF742F90028E6D10146104A1048FDF7B9
:103C1000A5FDE10703D50190FEF786FD0198002878
:103C2000DFD003B0F0BD00BF2C3500205835002098
:103C30005C350020A4350020B85B0200B45B0200B4
:103C4000D9360200D85B020021360200F5380200A6
:103C5000B05B02003EDF704773DF7047F0B593B092
:103C6000FCF71AF8FCF750F80646FCF76DF8054625
:103C7000FCF760F93246044620490320FCF728FF90
:103C80002A4603201E49FCF723FF224603201D4934
:103C9000FCF71EFF03201C490022FCF719FF00243B
:103CA0001A4B0293214603A8592705263C2283E894
:103CB0003000ADF80070ADF80460FBF743FC04235E
:103CC00003A821468DF80C408DF80F30CDF830D088
:103CD00000F030FB08B1FDF7EDF80D4C0021204657
:103CE0001022FBF72FFC00230321A0222170628108
:103CF00063602372A38113B0F0BD00BFE05B0200DC
:103D0000F45B0200085C02001C5C020088360020A4
:103D10007836002030B593B0FCF754F9FBF71CFC63
:103D200008B1FDF7C7F80020FCF75EFE08B1FDF70B
:103D3000C1F80120FBF7D2FE0120FBF7FFFE0120B6
:103D4000FBF73EFF1020FBF77DFFA020FBF79AFE5C
:103D50000320FBF74BFE002003460521374AFDF701
:103D600019FC08B1FDF7A6F8012040F6CD4100226C
:103D7000FFF714FF08B1FDF79DF8314B3149186882
:103D8000009050226846002300F002FF08B1FDF7C2
:103D900091F8002003AA014600F05EFF08B1FDF78C
:103DA00089F803A800F070FF08B1FDF783F85923E4
:103DB000ADF80030002105233C22234CADF804303F
:103DC00003A80294FBF7BEFB0023042203A81946B4
:103DD000CDF830D08DF80C308DF80F2000F0AAFA15
:103DE00008B1FDF767F8194C002110222046FBF7B7
:103DF000A9FB032200231046A025154965812270E6
:103E000063602372A381FCF70BFE2046FFF724FFBB
:103E100008B1FDF74FF80220FFF784FD08B1FDF768
:103E200049F8FFF71BFFFCF7B9FE0028FBD1FFF7AD
:103E300011FF0028F7D0FDF73DF8F4E7B03500207A
:103E4000DC5B02002836002088360020783600200F
:103E5000345C02006DDF704772DF704779DF7047B6
:103E60007DDF704765DF7047F0B50488012C83B0B3
:103E700007D0148804F1020E9E4505D90C2003B02A
:103E8000F0BD072003B0F0BD0578012D04D14578C1
:103E900002352544AB42F1D3023B0F461C1B02A95D
:103EA000A4B2054621F8024D07EB0E001646FFF7B7
:103EB000D7FF0028E3D12B78022B17D0012B11D08C
:103EC00023460821FE2BD9D83288581CB854328892
:103ED000013292B23280B9543288013213443380B5
:103EE0000020CCE76B789C42EBD2E9E7BDF80630C6
:103EF0009C42E5D30921E5E72DE9F04F85B08346E3
:103F00000E9D00882C880194BDF83C9000284ED06E
:103F100000278A46164698463C4604E0BBF8003027
:103F20000134A34226DDDBF8043053F8240003906B
:103F30000DF10B0103A80022FFF794FF18BB9DF8B9
:103F40000B30B342EAD10FB32A8893194B4519DCE1
:103F5000424403A80DF10B010127FFF783FF90B93D
:103F60002B889DF80B2013442B80BBF800300134C4
:103F7000A342D8DCDFB12B88019A013B9B1A9BB28C
:103F8000FF2B12D90C2005B0BDE8F08F2B885A1CEE
:103F9000334402334B4592B2F4DC2A8008F802A085
:103FA0002A88013292B22A80D2E708F80230002033
:103FB00005B0BDE8F08F00BF2DE9F047002317885A
:103FC000138090F82D3086B0144605460E46002B1F
:103FD00040F0C880AA78002A40F0F080EA78002AF1
:103FE0002CD1696899B1DA1CBA42097822D8022228
:103FF000F254238801339BB20A222380F25423888F
:1040000001339BB22380F1542388013323802B8911
:10401000002B40F0F7802B8A002B40F00C812B8B7B
:10402000002B40F021812B6A002B5CD02288911D4F
:10403000B94218D90C2006B0BDE8F087D91CB942A6
:10404000F8D80221F154238801339BB20121238047
:10405000F15423880B449BB22380F25423880B44F1
:104060009BB22380BDE71988052940F2C9806FF40F
:10407000486801EB080080B24FF27D3E704540F287
:10408000BF805888052840F2BB806FF4486C844498
:104090001FFA8CFCF44540F2B3804FF6FF7E714569
:1040A00004D0704502D0814200F2AA800521B154AB
:1040B0002288013292B212212280B1542288013228
:1040C00092B222801988B1543244090A5170228870
:1040D000023292B222805B88B35432441B0A53707E
:1040E0002388023323806B6A002B2BD09988208889
:1040F0000A1D0244BA429DD88A1CFE2A9AD803316E
:1041000031542288013292B2FF212280B154228898
:10411000013292B222801988B1543244090A517096
:104120002088023080B220809A885AB1996803931F
:10413000002965D0304401F0B1F8039B22889B88A8
:104140001344238095F82C30002B40F0A68028786B
:1041500000283FF470AF2846314622463B46FFF721
:1041600083FE68E7082F7FF665AF04A8FFF772FEAD
:1041700000287FF460AF23880822F254238801339B
:104180009BB21B222380F2542088013080B2208011
:10419000062230440DF1110101F080F823889DF8CA
:1041A000102006339BB212F0FE0218BF01222380BA
:1041B000F254238801339BB223800BE70433BB42C4
:1041C0003FF638AF04A8FFF749FE00287FF433AF6D
:1041D0002388BDF810200321F154238801339BB2BA
:1041E00019212380F154238801339BB2F1182380D5
:1041F000100AF2544870238802339BB22380EDE604
:10420000072018E705F1080802218DE890004046D4
:104210000A463346FFF770FE00287FF40CAF8DE8A6
:1042200090004046062110223346FFF765FE002825
:104230007FF401AFEFE605F110088DE890004046ED
:10424000032102223346FFF757FE00287FF4F3AE26
:104250008DE890004046072110223346FFF74CFEC0
:1042600000287FF4E8AEDAE605F118088DE8900042
:104270004046142102223346FFF73EFE00287FF419
:10428000DAAE8DE890004046152110223346FFF744
:1042900033FE00287FF4CFAEC5E6D5F82880B8F10C
:1042A000000FADD0B8F804200232FE2A3FF6C2AEAD
:1042B00023884FF000094FF0160A0132F254238888
:1042C00001339BB2238006F803A0238801339BB2FD
:1042D0002380B8F80020F2543344120A5A7023881D
:1042E00002339BB22380B8F80410F0180A4661B17B
:1042F000D8F808301946002B82D000F0CFFFB8F86C
:104300000430228813449BB2238009F1010995F8F7
:104310002C205FFA89F94A4509EB49087FF617AF67
:10432000AA6A02EB8808B8F804200232FE2AC4D92F
:1043300080E600BF2DE9F04794B01F230D46ADF88D
:104340000E30044600285AD0C278530753D590F84F
:104350002D300021ADF80C10002B6BD18378002B91
:1043600040F0AB801846032114AE5F1C023330448A
:1043700016FA87F716FA83F64FF0020E8BB2012178
:1043800000F840ECADF80C3007F8401C06F8402C63
:104390006268B2B1D91C1F29167828D814AF581CEE
:1043A0009A1C17FA80F03B4417FA82F24FF0020E83
:1043B0000A2703F840ECADF80C1000F8407C02F836
:1043C000406C2389002B40F08581238A002B40F02C
:1043D0009F81238B002B40F0B981236A002B00F0D2
:1043E000D880BDF80C20911D1F2940F28F800C2031
:1043F00014B0BDE8F087072014B0BDE8F087ADF831
:104400000C00002D00F00481EB78002BF3D128463E
:104410000CA90DF10E02FFF7CFFD0028ECD19DF89D
:104420000E300CAA20469DF80C10FFF715FD14B0B5
:10443000BDE8F0870CAF3846FFF70CFD0028DBD154
:10444000BDF80C3014AA03F1010C12FA8CFC03F134
:10445000020E13441FFA8EFE04AE4FF008094FF00F
:104460001B0803F8409C0DF13101062206EB0E00FB
:104470000CF8408CADF80CE000F010FFBDF80C20FB
:104480009DF83010931D11F0FE019BB240F07C812D
:1044900014A8034403F8401CD31DA2789BB2ADF8C6
:1044A0000C30002A40F01181E278002A3FF470AF0E
:1044B000D91C1F2918469AD856E70CAF3846FFF783
:1044C000CDFC002898D1BDF80C30BDF83070E278F2
:1044D000991C0DF1500E581C89B204AE0EEB030965
:1044E0001EFA80F0043306EB010E4FF0030A4FF082
:1044F00019089BB24FEA172C09F840ACADF80C3004
:1045000000F8408C77548EF801C0CEE71888052853
:104510007FF671AF6FF4486C00EB0C06B6B24FF249
:104520007D37BE427FF667AF5E88052E7FF663AFAC
:104530006FF4486EB6441FFA8EFEBE457FF65BAF41
:104540004FF6FF77B84204D0BE4202D0B0423FF6E9
:1045500052AF14A8561C10FA86F600EB020E901CFF
:1045600080B212274FF0050C0EF840CCADF80C00CD
:1045700006F8407C1F88ADF80C1004AE3118375493
:1045800004323F0A4F7092B25B88B35432441B0A24
:104590005370676A9FB3B888BDF80C30811C9A1CB1
:1045A00056181F2E3FF623AFFE293FF620AF14AE5C
:1045B000591C06EB030E16FA81F192B20330FF2666
:1045C0000EF8400CADF80C2001F8406C398804AEB0
:1045D000B018B154090A41700433BA8898B2ADF8E2
:1045E0000C0062B1B96800293FF405AF304400F017
:1045F00055FEBDF80C30BA881344ADF80C3094F871
:104600002C3053B904AE2378002B53D13446F8E64E
:104610002B46ADF80E502A4604E7A76A002F3FF458
:10462000EAAEB9880231FE293FF6E1AE9E46BDF8FA
:104630000C304FF0000804AE4FF0160914AA581CB5
:1046400002EB030C12FA80F09A1C92B201310CF8C2
:10465000401CADF80C2000F8409C3988B15432441D
:10466000090A51700433B9889BB20A46F018ADF8B4
:104670000C3079B1BB681946002B3FF4BCAE00F09A
:104680000DFEBDF80C30BA8894F82CE013449BB2B0
:10469000ADF80C3008F101085FFA88F8F04508EB36
:1046A0004802B0D2A76A07EB8207B9880231FE2917
:1046B000C4D99CE62046314603AA1F23FFF7D4FB4A
:1046C00000287FF499AE34469BE604331F2B3FF657
:1046D0008EAEF3E603AA04F1080704AE4FF01F08FC
:1046E00002218DE80401384633460A46FFF704FCF0
:1046F00000287FF481AE03AB8DE8080138463346CD
:1047000006211022FFF7F8FB00287FF475AE5CE667
:1047100003AA04F1100704AE4FF01F088DE804014E
:104720003846334603210222FFF7E6FB00287FF4D8
:1047300063AE03AB8DE808013846334607211022EB
:10474000FFF7DAFB00287FF457AE42E603AA04F134
:10475000180704AE4FF01F088DE8040138463346B1
:1047600014210222FFF7C8FB00287FF445AE03ABFB
:104770008DE808013846334615211022FFF7BCFBAF
:1047800000287FF439AE28E614A90B44012103F870
:10479000401C81E60649074A074B9B1A03DD043B90
:1047A000C858D050FBDC00F013F8FAF757FE0000B1
:1047B000A85E0200402C0020D82C0020FEE7FEE777
:1047C000FEE7FEE7FEE7FEE7FEE7FEE7FEE7FEE7C1
:1047D000F0B5A44B1B78062B1AD0A34AD2F8883028
:1047E00043F47003C2F88830BFF34F8FBFF36F8F6D
:1047F0004FF01023D3F80022002AC0F20281D3F830
:104800000432002BC0F2FD80984B994A1A60F0BD2B
:10481000984B1B681E07E0D1974B1B6803F0F00311
:10482000302B62D0944B1B6803F0F002302A4BD03F
:1048300003F0E003402B47D08F4B1B6803F0F003DD
:10484000302B00F0CF808C4B1B6803F0F002302A35
:1048500028D003F0E003402B24D0874B1B6803F0E3
:10486000F003302B00F0B080834B1B6803F0F003A3
:10487000302B00F09080804B1B6803F0F003502B2E
:1048800037D07D4B1B6803F0F002302A03D003F0D1
:10489000E003402BA1D1794B794A1B6803F04F0309
:1048A00013609AE76F4B1B784FF080420021062B74
:1048B000C2F80C11C2F81011C2F838158DD16D4B29
:1048C0001B68180789D1C8E76E4B664A1B681278C7
:1048D0006D49C3F34233062A0B607FF47EAF654B0C
:1048E0001B681D077FF479AFA6E7684B684A1A601A
:1048F00098E74FF08052674BD2F80414C3F82015A4
:10490000D2F80814C3F82415D2F80C14C3F82815EB
:10491000D2F81014C3F82C15D2F81414C3F83015BB
:10492000D2F81814C3F83415D2F81C14C3F8401583
:10493000D2F82014C3F84415D2F82414C3F848154B
:10494000D2F82814C3F84C15D2F82C14C3F850151B
:10495000D2F83014C3F85415D2F83414C3F86015E3
:10496000D2F83814C3F86415D2F83C14C3F86815AB
:10497000D2F84014C3F86C15D2F84424C3F870255B
:10498000384B1B78062B7FF428AF3A4B1B681B076C
:104990007FF423AF75E7334B3F4F1A783F4D4048C4
:1049A000404B4FF0050E012600243F21062AC7F890
:1049B00000E02E60046019607FF40FAF2D4B1B6880
:1049C0001A077FF40AAF56E7264B374A1B780321B4
:1049D000062B11607FF401AF264B1B6819077FF48B
:1049E000FCAE41E7314A1F49D368097823F0807350
:1049F0000629D360C4D11F4B1B681C077FF4EDAEA2
:104A000021E72B4B0122C3F80425D3F80024002A08
:104A1000FBD04FF0102315222549C3F80022D1F80E
:104A20000034002BFBD04FF0102315222049C3F88F
:104A30000422D1F800241E4B002AFAD00022C3F829
:104A40000425D3F80024002AFBD0BFF34F8F06497A
:104A5000184BCA6802F4E0621343CB60BFF34F8F78
:104A600000BFFDE7E00F00F000ED00E0B02C0020FB
:104A70000090D003E40F00F0E80F00F0580200109F
:104A8000E40E0040440200103C05004074C00740A2
:104A90000DF0ADBA00C000401056004088560040EE
:104AA0001856004014560040A0050040F0ED00E00C
:104AB00000E001400400FA0548DF704710DF70474E
:104AC00060DF704761DF7047FCF704BA2DE9F047FB
:104AD000DFF8A890264EDFF8A880264FD9F80040CE
:104AE000B4FA84F482B0002564097DB93378DFF824
:104AF00080A063B901A8FFF7DFFF05280AD018B32B
:104B0000FCF7D8F94CB101240025EFE7CCB102B095
:104B1000BDE8F087002CFAD101259AF80030002B6F
:104B2000F5D102A93C68B8F8003021F8043D2046D0
:104B3000FFF7C8FF052816D080B1FCF7BBF90024A9
:104B4000D3E7DFF82CA0E8E70198FDF75FFE0A4BFA
:104B50001B68002BD6D001989847D3E72046D9F898
:104B600000309847EBE7002DCDD002B0BDE8F087CC
:104B70009036002094360020983600209C36002085
:104B800092360020014B1878704700BF9136002004
:104B900011B111F0030F01D007207047F8B51B4F7A
:104BA0001B4E1C4D1C4C396032802B602368DB0788
:104BB00008D50125C4F880501849FFF77FFF30B1B0
:104BC0002560F8BD1549FFF779FF00B1F8BD144B1A
:104BD00001221A70FDF72CFE0F4A92F816335B097A
:104BE000991E052909D8043B012B06D90D4B98685D
:104BF00030B94FF480031360F8BD42F20200F8BDF3
:104C00001A6842F480021A600020F8BD9436002031
:104C100092360020A036002000E100E0C94A0200E0
:104C200091360020EC36002008B5094B1B6833B1E3
:104C3000984700B908BDBDE80840FCF73BB9054BF3
:104C40001B78002BF6D0BDE80840FFF73FBF00BF40
:104C5000A03600209136002070B5144605460E4659
:104C6000104600211C22FAF76DFC227D26720023DB
:104C700063F30002012165722275A361218005B1F1
:104C8000A172002070BD00BF10B582B0164B019319
:104C900002A9019B41F8083DFFF712FF009A019B12
:104CA0009A4204460BD110B9204602B010BD012033
:104CB0000E492246FBF70CFF204602B010BD022031
:104CC0000B49FBF705FF4FF08052009BD2F80C21F7
:104CD0000849C3EB822202F100520220FBF7F8FEE2
:104CE000204602B010BD00BF402C0020405D0200F5
:104CF000C85C02000C5D02007BB972B90029BEBF1E
:104D000000204FF0004106E008BF00281CBF6FF0F4
:104D100000414FF0FF3000F03BB882B0EC462DE987
:104D2000005000F005F8DDF804E002B00CBC70475C
:104D30002DE9F041069C154606460F46984600F0C0
:104D400029F805FB01F300FB0838A5FB0023B21A84
:104D5000434467EB0303C4E90023BDE8F08100BFCF
:104D60002DE9F041069C904606460F461D4600F090
:104D70005FF900FB05F5A0FB082308FB0155B21AFB
:104D80002B4467EB0303C4E90023BDE8F08100BFB7
:104D9000704700BF00292DE9F043C0F2A68000262D
:104DA000002BC0F29C80884694469E4615460446D9
